:020000040000FA
:10000000D01F001085020000890200008B02000052
:100010008D0200008F02000091020000000000002D
:10002000000000000000000000000000930200003B
:1000300095020000000000009702000099020000F5
:100040009B0200009B0200009B0200009B0200003C
:100050009B0200009B0200009B0200009B0200002C
:100060009B0200009B0200009B0200009B0200001C
:100070009B0200001F3800009B0200009B02000052
:1000800061330000412D00009F300000BB300000B4
:100090009B020000753200009B0200009B020000E2
:1000A0009B0200009B0200009B0200009B020000DC
:1000B000DD2C00009B0200009B0200009B02000060
:1000C0000348854603F0B4FD00480047D500000012
:1000D000D01F001090B03049881003F0E2FC2F4888
:1000E0000068402108432D49086003F050F90021C1
:1000F0004B20C00102F064FD01F0EFFF02F00CF8AC
:10010000012000F02AFF012000F0F0FE31E0642120
:100110002348006800F0C4F8052919D11221684667
:100120000170002141701F4803F06EFD0446224615
:100130001C4900A8023003F043FD1A4803F064FD97
:10014000801CC4B222466946822000F003F900BF39
:1001500002F0FAFD02F0C4FE00F084FF00F0D0F8D7
:1001600001F055FA01F0BDFE00F028FF002800D094
:1001700000E0CCE700BF01200B4908600BE002F073
:10018000E3FD02F0ADFE00F06DFF00F0B9F801F004
:100190003EFA01F0A6FEF2E7006CDC02808004402B
:1001A000C006001070060010EC04001070B5054683
:1001B0000C4632202E4908600846456084602D496F
:1001C0002D4A126890472B4870BD70B504460D4605
:1001D0001646332026490860084644608560C6609C
:1001E0007D21C9002548006800F05AF820490861BF
:1001F00020491F48204A126890471E4870BD70B5BC
:1002000004460D4635201A4908600846446085605A
:100210001849194A126890471648006870BD70B5B1
:1002200004460D4634201249086008464460856043
:100230007D21C9001148006800F032F80C49C860FF
:100240000C490B480C4A126890470A4870BD10B51B
:1002500072B601225203D003C02102E008CA08C0CE
:10026000091F0029FADC0123054C236062B610BD8A
:10027000781700108C170010C8060010E806001050
:100280000080044005480047FEE7FEE7FEE7FEE782
:10029000FEE7FEE7FEE7FEE7FEE7FEE7C10000003F
:1002A00030B50B46014600202022012409E00D460E
:1002B000D5409D4205D31D469540491B2546954096
:1002C00040191546521E002DF1DC30BD70B50024DA
:1002D0002546002801DA01244042002901DA0125DF
:1002E0004942FFF7DDFFAC4200D04042002C00D075
:1002F000494270BD7047000000000000FFFFFFFF93
:1003000010B520E0FD484078FC494978491CFB4A7B
:10031000517044214843111D4418081F40780F288C
:1003200002D10020091F48705A21002003F006FD69
:10033000A521002003F002FD2078401CC1B2204618
:1003400002F051FC00BFED484078EC490978884242
:10035000D8D110BDF8B504460F4616460025802CAE
:1003600011DB832C0FDC002E0DD0002F0BD0E348C7
:1003700001784078002801D10E2002E0DF48407863
:10038000401E814200D1F8BDDC480078442148433A
:10039000DA49091D45186C70701C287032463946C0
:1003A000A81C03F00DFCD5480078401CD349087008
:1003B000084600780F2801D100200870D048006856
:1003C000002801D1FFF79CFF00BFDCE770B590B0BB
:1003D00004460E4615462004010E6846017044701E
:1003E0002A463146801C03F0EBFBA81CC2B26946CA
:1003F0008220FFF7AFFF10B070BDF0B589B00546A1
:10040000C04CC148007E0890182102A803F0F1FBFF
:1004100000260027BD4885421CD1BD48007802282F
:1004200012D10020BA49087001264320C000005DA7
:10043000642829DA01274320C000005D401CC1B2B6
:100440004320C00001551FE0B1480078401CB0496E
:10045000087019E0AD48401C85420FD101264320A9
:10046000C000005D00280FDD01274320C000005DB3
:10047000401EC1B24320C000015505E0A3484030F2
:10048000854201D101260127012E14D1002F10D061
:100490004320C000025D9FA102A803F07FFD02A8D7
:1004A00003F0B2FB024602A9019098484030FFF7E2
:1004B0008DFF09B0F0BD9548801C85420CD1012606
:1004C0009648005D64281EDA01279448005D401CB0
:1004D000C1B29248015516E08C48C01C85420CD12F
:1004E00001268E48005D1E280DDD01278B48005D2A
:1004F000401EC1B28948015505E084484630854216
:1005000001D101260127012E12D1002F0FD08348DF
:10051000025D83A102A803F041FD02A803F074FB71
:10052000024602A9019079484630FFF74FFFC0E725
:100530007648001D85420DD17848401C005D3C285E
:1005400020DA7648401C005D401CC1B27348401C54
:10055000015517E06D48401D85420DD16F48401C84
:10056000005D00280EDD6D48401C005D401EC1B2DC
:100570006A48401C015505E064484C30854201D171
:1005800001260127012E12D1002F0FD06348025DF2
:1005900066A102A803F002FD02A803F035FB0246A3
:1005A00002A9019059484C30FFF710FF81E75748E6
:1005B000801D85420DD15948801C005D3C2820DA01
:1005C0005648801C005D401CC1B25448801C015537
:1005D00017E04E48C01D85420DD15048801C005D7B
:1005E00000280EDD4D48801C005D401EC1B24B4806
:1005F000801C015505E045485230854201D1012655
:100600000127012E12D1002F0FD04448025D44A1D2
:1006100002A803F0C3FC02A803F0F6FA024602A9FE
:1006200001903A485230FFF7D1FE42E73748083090
:1006300085420CD13348401F007900281EDA31482A
:10064000401F0079401C2F49491F087116E02F48B0
:10065000093085420CD12B48401F007900280DDD60
:100660002848401F0079401E2649491F087105E0AF
:1006700026485830854201D101260127012E6CD130
:10068000002F3AD01F48401F0079002804D129A12B
:1006900002A803F083FC26E01A48401F00790128D5
:1006A00004D126A102A803F079FC1CE01548401FE4
:1006B0000079022804D123A102A803F06FFC12E004
:1006C0001048401F0079012804D121A102A803F09D
:1006D00065FC08E00B48401F0079002803D11DA1EC
:1006E00002A803F05BFC02A803F08EFA024602A9FE
:1006F000019006485830FFF769FEDAE6080F00104F
:10070000EC04001001070010010900101011000096
:1007100015060010256420252500000015020000A4
:1007200025642063642F6D32000000002564206D75
:10073000696E0000446973706C6179004B65797073
:1007400061640000466C6F6F7250616400000000CD
:10075000444353004C4F5000FFE7FB4885420AD109
:10076000FA48005D03281EDAF848005D401CC1B25B
:10077000F648015517E0F448401C85420DD143204E
:10078000C000005D00280EDD4320C000005D401E5B
:10079000C1B24320C000015505E0EB48533085420B
:1007A00001D101260127012E2FD1002F2CD0E7489F
:1007B000005D002804D1E6A102A803F0EFFB19E0D8
:1007C000E248005D012804D1E2A102A803F0E6FBA3
:1007D00010E0DE48005D022804D1E0A102A803F089
:1007E000DDFB07E0D948005D032803D1DDA102A8A5
:1007F00003F0D4FB02A803F007FA024602A9019015
:10080000D1485330FFF7E2FD53E6CF48801C8542C4
:100810000DD1CE48401C005DFA2820DACB48401CA0
:10082000005D1930C1B2C948401C015517E0C648E7
:10083000C01C85420DD1C548401C005D32280EDD2C
:10084000C248401C005D3238C1B2C048401C01554E
:1008500005E0BD485930854201D101260127012E0E
:1008600013D1002F10D0B948401C025DBFA102A8CF
:1008700003F094FB02A803F0C7F9024602A9019015
:10088000B1485930FFF7A2FD13E6AF48001D85427D
:100890000DD1AE48801C005D012820DAAB48801CD9
:1008A000005D401CC1B2A948801C015517E0A64854
:1008B000401D85420DD1A548801C005D00280EDD3D
:1008C000A248801C005D401EC1B2A048801C01559A
:1008D00005E09D485F30854201D101260127012EA8
:1008E0001AD1002F17D09948801C005D002804D130
:1008F000A0A102A803F052FB03E0A3A102A803F009
:100900004DFB02A803F080F9024602A901908E482F
:100910005F30FFF75BFDCCE58920400185421CD1AB
:100920009E480078022812D100209C4908700126B8
:1009300087208000005D032836DA012787208000A9
:10094000005D401CC1B28720800001552CE0934817
:100950000078401C9149087026E07B48C01D854204
:100960001CD18E480078022812D100208B490870D3
:10097000012687208000005D002815DD01278720E3
:100980008000005D401EC1B28720800001550BE051
:1009900082480078401C8149087005E06A4865304B
:1009A000854201D101260127012E33D1002F30D0FD
:1009B00087208000005D002804D179A102A803F0FF
:1009C000EDFA1CE087208000005D012804D177A1AA
:1009D00002A803F0E3FA12E087208000005D0228FD
:1009E00004D175A102A803F0D9FA08E0872080009D
:1009F000005D032803D173A102A803F0CFFA02A877
:100A000003F002F9024602A901904F486530FFF752
:100A1000DDFC4EE54C480830854215D15F48007832
:100A200002280BD100205D4908700126E0781F28BC
:100A30002ADA0127E078401CE07025E0574800786A
:100A4000401C564908701FE03F480930854215D1C7
:100A50005248007802280BD1002050490870012626
:100A6000E078012810DD0127E078401EE0700BE0FF
:100A70004A480078401C4949087005E032486B300C
:100A8000854201D101260127012E1CD1002F1AD049
:100A9000E0780A2805DAE2784DA102A803F07EFA90
:100AA00007E0E078092804DDE2784AA102A803F013
:100AB00075FA02A803F0A8F8024602A9019022489C
:100AC0006B30FFF783FC20480A3085420DD11F4868
:100AD000401D005D402820DA1C48401D005D401C80
:100AE000C1B21A48401D015517E017480B30854226
:100AF0000DD11648401D005D01280EDD1348401D34
:100B0000005D401EC1B21148401D015505E00E4870
:100B10007330854201D101260127012E64D1002FB7
:100B200010D00A48401D025D2BA102A803F036FA3E
:100B300002A803F069F8024602A901900248733046
:100B4000FFF744FCB5E44FE01A1100001902000061
:100B500030A1E3003930A1E300000000313830A1BA
:100B6000E3000000323730A1E30000002564206D6F
:100B700073000000797979792D4D4D2D64642068DA
:100B8000683A6D6D3A7373004D4D2D64642D79791B
:100B900079792068683A6D6D3A7373001506001014
:100BA00046726F6E7420446F6F72000052656172FE
:100BB0002020446F6F7200004C6566742020446FE3
:100BC0006F720000526967687420446F6F72000092
:100BD00020256400256400004D696E2025642046B0
:100BE0006C6F6F7200000000F74885420AD1F74829
:100BF000005D40281BDAF548005D401CC1B2F34897
:100C0000015514E0F048401C85420AD1EF48005DD0
:100C100001280CDDED48005D401EC1B2EB480155D6
:100C200005E0E9486B30854201D101260127012EFC
:100C300012D1002F0FD0E548025DE5A102A803F014
:100C4000ADF902A802F0E0FF024602A90190DE48D9
:100C50006B30FFF7BBFB2CE4DB48801C85420FD1D7
:100C60001120400120180078052822DA11204001C7
:100C700020180078401C112149016118087018E003
:100C8000D148C01C85420FD11120400120180078A6
:100C900000280EDD1120400120180078401E11218F
:100CA00049016118087004E0CD48854201D1012650
:100CB0000127012E4CD1002F49D0112040012018CE
:100CC0000078002804D1C7A102A803F067F935E035
:100CD0001120400120180078012804D1C3A102A8E6
:100CE00003F05CF92AE01120400120180078022866
:100CF00004D1BFA102A803F051F91FE01120400167
:100D000020180078032804D1BBA102A803F046F9FB
:100D100014E01120400120180078042804D1B8A163
:100D200002A803F03BF909E01120400120180078E7
:100D3000052803D1B4A102A803F030F902A802F0FB
:100D400063FF024602A90190A548FFF73FFB2DE48F
:100D50009D48001D85420CD1892080000059002843
:100D60001ED0892080000059401E89218900085129
:100D700016E09548401D85420CD18920800000591D
:100D800000280DD0892080000059401E892189004B
:100D9000085105E08C487730854201D101260127B2
:100DA000012E00D141E48848801D85420FD11120D9
:100DB00040012018007A022823DA1120400120186F
:100DC000007A401C112149016118087219E07E481F
:100DD000C01D85420FD1112040012018007A002843
:100DE0000FDD112040012018007A401E1121490119
:100DF0006118087205E074487D30854201D10126F2
:100E00000127012E2CD1002F29D0112040012018BC
:100E1000007A002804D17EA102A803F0BFF814E0F4
:100E2000112040012018007A012804D17AA102A8DB
:100E300003F0B4F809E0112040012018007A0228DC
:100E400003D176A102A803F0A9F802A802F0DCFE03
:100E5000024602A901905C487D30FFF7B7FA4CE4E6
:100E600000BF4AE410B572B607210846FFF79EF9A5
:100E700007210846FFF7D3F907210846FFF7BFF916
:100E800007210846FFF792F90122920265491F20C7
:100E90008002FFF79AF962B6642002F0A3FA10BD4F
:100EA000F8B500275F4E0024012508E0A8001F21A7
:100EB0008902401800680746A90070506D1CFF2D7C
:100EC000F4D900205749086008714C1D2079022888
:100ED00001DD01202071E0781F2801DD0120E07094
:100EE000E07851490870FFF7BDFFF8BD30B591B00B
:100EF000044640224D4901A802F062FE494D6D1D95
:100F000001A84471062201A98220FFF723FA11B03B
:100F100030BD70B5434D6D1D2C49891F495D0129B8
:100F200004D02A49891F495D032901D1142100E019
:100F300000210846FFF7DAFF234C2A3405E020465B
:100F4000FFF75BFA01F0CCFF641C1F487D30844240
:100F5000F5D90020FFF7CAFF70BD10B5044634482C
:100F60000078A0421DD032480470002C03D16420C8
:100F700001F0B3FF15E0012C03D1642001F0ADFFB7
:100F80000FE0032C04D1FF20F53001F0A6FF08E0AC
:100F9000022C03D1274801F0A0FF02E0642001F0F9
:100FA0009CFF10BD10B50020FFF7D7FF642001F0B3
:100FB00094FF10BD00201E49087070471C4800783F
:100FC000032839D101207047261100001F020000BC
:100FD0004D617820256420466C6F6F720000000020
:100FE000AD040000554152540000000043414E0042
:100FF00053504930000000005350493100000000B8
:1010000052534C300000000052534C31000000009D
:101010004E4F4E45000000004F4444004556454E9B
:1010200000000000FC060010C0000010DC420000C0
:10103000FC0A0010DC0500000020704710B5FE48D7
:101040000078032802D00320FFF787FFFA484068A2
:10105000002806D0F8484068F84909684018F64961
:10106000886010BD10B5F4484068002814D0F248DC
:101070000078032817D1F0488068F0490968884251
:1010800011D2ED484068ED4909684018EA49886086
:101090000220FFF762FF06E0E7480078022802D14D
:1010A0000320FFF75AFF10BD00B5E5490978012973
:1010B00000D100BD0121E24A1170E24909780B001C
:1010C00002F080FF05040A14384A6B005A2802D146
:1010D0000121DC4A117064E0A52803D10221D94A1C
:1010E000117002E00021D74A11705AE000280DD09B
:1010F00040280BDCD4490A784978002901D10E2117
:1011000002E0D1494978491E8A4203D10021CD4AE3
:1011100011700EE0CC49097844225143CA4A121D8D
:101120008918CA4A11601146096808700321C54A26
:10113000117036E0802801DB832803DD0021C14ADD
:10114000117008E0C149096848700421BD4A117056
:101150000021BF4A117024E0BD490A780978491C72
:10116000BB4B1970B9490968891C8854B74909688B
:101170000A7819460978491C8A420DDCB249097877
:10118000491CB14A1170114609780F2901D100217B
:1011900011700021AB4A117003E00021A94A1170BF
:1011A00000BF00BF0021A64A117000BF81E710B543
:1011B00090B004462112684601704470002181708D
:1011C0004078202803D102216846C17006E06846B5
:1011D0004078212802D101216846C1700422694665
:1011E0008220FFF7B7F810B010BDF0B585B0054606
:1011F000002D7DD0FFF722FF6878832878D12878EA
:101200000C28FBD1002493A0006804907D200001ED
:10121000039000260020029000270190697903982E
:101220000818039068798C4908707D21C9000398DB
:10123000FFF736F80A210090FFF732F80C4687488E
:101240000078A04203D18648007800280DD1032100
:1012500068464174601CC1B26846C174042204A986
:101260008220FFF777F87D48047064210398FFF728
:1012700017F80A210090FFF713F80C4677484078DA
:10128000A04203D17648007800280DD10421684699
:101290004174601CC1B26846C174042204A9822052
:1012A000FFF758F86D4844700A210398FEF7F8FFDD
:1012B0000A210090FEF7F4FF0C4668488078A042AF
:1012C00003D16748007800280DD105216846417494
:1012D000601CC1B26846C174042204A98220FFF7D1
:1012E00039F85E4884700A210398FEF7D9FF00E0C0
:1012F00040E10C465948C078A04203D158480078D4
:1013000000280DD1062168464174601CC1B26846B0
:10131000C174042204A98220FFF71CF84F48C4704E
:10132000AE79A8794C49487030460A21FEF7CEFFC5
:101330000A210090FEF7CAFFCCB24A480078A042CA
:1013400003D14748007800280DD121216846417417
:10135000601CC1B26846C174042204A98220FEF751
:10136000F9FF40480470F0B20A21FEF7AFFFCCB29B
:101370003C484078A04203D13948007800280DD17C
:10138000222168464174601CC1B26846C1740422BF
:1013900004A98220FEF7DEFF32484470E87902900B
:1013A000E8792D4988700A210298FEF779FF0A2111
:1013B0000090FEF775FF0C462B480078A04203D141
:1013C0002748007800280DD1082168464174601C28
:1013D000C1B26846C174042204A98220FEF7BAFF94
:1013E000214804700A210298FEF75AFF0C461E4855
:1013F0004078A04203D11A48007800280DD1092175
:1014000068464174601CC1B26846C174042204A9D4
:101410008220FEF79FFF1448447001201049087095
:101420002021684641740C21C174042204A9822041
:10143000FEF790FF232119E0FC0A0010C0060010FF
:101440001706001016060010080B001018060010F2
:101450001C06001030000000C10000101E06001025
:101460002A06001022060010240600106846417467
:101470000C21C174042204A98220FEF76BFF6F7A4D
:10148000687AFE49C87038460A21FEF71FFF0A2114
:101490000090FEF71BFFCCB2F9480078A0420DD0B7
:1014A0000A2168464174601CC1B26846C1740422B6
:1014B00004A98220FEF74EFFF1480470F8B20A2119
:1014C000FEF704FFCCB2EE484078A0420DD00B21CD
:1014D00068464174601CC1B26846C174042204A904
:1014E0008220FEF737FFE6484470A87A0190A87A78
:1014F000E2490871002048710A210198FEF7E6FED2
:101500000A210090FEF7E2FECCB2DE480078A0424D
:101510000DD00C2168464174601CC1B26846C1748C
:10152000042204A98220FEF715FFD6480470019911
:10153000C8B20A21FEF7CAFECCB2D2484078A04217
:101540000DD00D2168464174601CC1B26846C1745B
:10155000042204A98220FEF7FDFECA48447010212F
:10156000684641740B21C174042204A98220FEF74D
:10157000F1FE00BF05B0F0BD0146C3480068002879
:101580000AD0C14A106804E042888A4200D17047FC
:1015900000690028F8D100BF0020F8E70246BA48E9
:1015A000006800280ED0B848016806E048885388D3
:1015B000984201D10846704709690029F6D10A61AD
:1015C0001046F8E7B04802601046F4E730B591B035
:1015D00004460D462078012816D1606801F0D2FE3D
:1015E0006188884210D32912684601714571002133
:1015F000817101A8C170042201A98220FEF7AAFE10
:1016000000202070607000BF11B030BD704710B571
:1016100015E09E4840789D494978491C9B4A517085
:1016200044214843111D4418081F40780F2802D157
:101630000020091F48702046FFF7D7FD00BF9348E0
:101640004078924909788842E3D1FFF7DFFF10BD67
:1016500070477047F0B591B006460F461C4600250E
:10166000207800F064FD01280BD1607800F05FFD68
:10167000012806D1A07800F05AFD012801D10325E8
:1016800025E0607800F053FD012804D1A07800F037
:101690004EFD012809D0207800F049FD012806D12F
:1016A000607800F044FD012801D102250FE0A07808
:1016B00000F03DFD012809D0607800F038FD0128D8
:1016C00004D0207800F033FD012800D101257048B6
:1016D0000068854250D06E48006801280AD1402237
:1016E0006C4901A802F06CFA042201A98220FEF7DD
:1016F00031FE3FE066480068022816D14022654965
:10170000403101A802F05CFA042201A98220FEF710
:1017100021FE40225F49803101A802F051FA0422E3
:1017200001A98220FEF716FE24E05948006803282C
:1017300020D140225749C03101A802F041FA0422C9
:1017400001A98220FEF706FE4022534901A802F0BB
:1017500037FA042201A98220FEF7FCFD40224E49FF
:10176000403101A802F02CFA042201A98220FEF7E0
:10177000F1FD00BF46480560012D21D140224649B8
:10178000803101A802F01CFA002069468871207897
:1017900000F0CDFC012802D12078A07006E060782E
:1017A00000F0C5FC012801D16078A070A07800F09D
:1017B000CDFC01A9C87004228220FEF7CBFD7AE09F
:1017C000022D2CD1207800F0B2FC012803D16078E2
:1017D000A0702078607040222F49C03101A802F02B
:1017E000EFF9002168468171A07800F0AFFC01A9F3
:1017F000C87004228220FEF7ADFD4022274901A8CF
:1018000002F0DEF9002168468171607800F09EFCEC
:1018100001A9C87004228220FEF79CFD4BE0032D35
:1018200049D140221D49403101A802F0C9F90021E7
:1018300068468171A07800F089FC01A9C870042273
:101840008220FEF787FD40221449803101A802F072
:10185000B7F9002168468171607800F077FC01A932
:10186000C87004228220FEF775FD40220B49C0316A
:1018700001A802F0A5F90021684611E0C10000109E
:101880002606001028060010E8040010080B0010BF
:101890002C0600101C4300001C4400001C450000E6
:1018A0008171207800F052FC01A9C87004228220C6
:1018B000FEF750FD00BF11B0F0BDFFB593B0174665
:1018C0003878C007C00F129038784007800F119009
:1018D000169800780607360F0025FE48FFF74CFEE5
:1018E0000446002C10D1142002F060FC04461421A0
:1018F000204602F07EF9F7486080FF20F530E08056
:101900002046FFF74BFE0446002E4FD1032D0DD18C
:101910004022F14901A802F053F9042201A98220D2
:10192000FEF718FD002020712070B7E0002D0FD1C8
:101930004022E949403101A802F042F9042201A9FC
:101940008220FEF707FD0120207100202070A5E015
:10195000022D16D14022E049803101A802F030F971
:10196000042201A98220FEF7F5FC062020710A203E
:101970006071FF205F30E0800120207020792072AC
:101980008CE0012DD1D14022D349C03101A802F011
:1019900017F9042201A98220FEF7DCFC192040017E
:1019A000E080062020710220207077E0012E4FD1C8
:1019B000032D0DD14022C94901A802F001F90422EA
:1019C00001A98220FEF7C6FC00202071207065E08E
:1019D000002D0FD14022C149403101A802F0F0F89A
:1019E000042201A98220FEF7B5FC0220207100200C
:1019F000207053E0022D16D14022B849803101A851
:101A000002F0DEF8042201A98220FEF7A3FC0120E7
:101A1000207105206071FF205F30E0800120207080
:101A2000207920723AE0012D38D14022AB49C031F3
:101A300001A802F0C5F8042201A98220FEF78AFC61
:101A400019204001E080012020710220207025E053
:101A5000022E10D1002D21D14022A14901A802F06F
:101A6000AFF8032201A98220FEF774FC0120207147
:101A70000020207012E0032E10D1002D0ED1402244
:101A80009749403101A802F09BF8042201A9822065
:101A9000FEF760FC00202071207000BF17B0F0BD81
:101AA000F0B591B01E46002423E000251DE0305D16
:101AB0000121A9400840002815D0E000401C401931
:101AC000C7B240228649803101A802F079F800208F
:101AD0006946887101A8C770042201A98220FEF717
:101AE00039FC11B0F0BD681CC5B2082DDFDB601CED
:101AF000C4B2012CD9DB40227949C03101A802F0DF
:101B00005FF8002069468871002101A8C170042295
:101B100001A98220FEF71EFC00BFE2E77047704774
:101B200070477047704770477047704770477047FD
:101B3000F0B591B005460E4617461C46402269494D
:101B400001A802F03DF8217801A801716178417186
:101B5000A1788171E178C171217901726179417255
:101B60000A2201A98220FEF7F5FB11B0F0BDF0B505
:101B700091B005460E4617461C4640225949403151
:101B800001A802F01DF82078012803D1002101A846
:101B9000C17002E0502101A8C170062201A9822073
:101BA000FEF7D8FB11B0F0BD70477047FFB591B09C
:101BB000002445E01398015D1498005D81423ED0F9
:101BC00000263AE0E0008019109081214901109828
:101BD000401887B21098C000434945181498005D1A
:101BE0000121B1400840002813D0287800280DD1E9
:101BF0003912684601704770002181700121C1705F
:101C0000042269468220FEF7A5FB00BF022028704F
:101C100012E0287802280FD1391268460170477007
:101C200000218170C170042269468220FEF792FB78
:101C300000202870687000BF761C062EC2D3641C7A
:101C4000062CB7D315B0F0BDF0B591B01F460024F7
:101C500053E081204001201886B2E0002349451856
:101C600038780121A1400840002822D0387801218D
:101C7000A140084010902878002817D131126846FA
:101C800001704670002181701098012802D1022154
:101C90006846C1701098022802D101216846C170BF
:101CA000042269468220FEF755FB00BF02202870FF
:101CB00022E0287802281FD131126846017146714E
:101CC0000021817101A8C170042201A98220FEF7C0
:101CD00041FB0DE0091000001C4600001C470000FD
:101CE0001C4800001C490000F0000010C800001053
:101CF00000202870687000BF641C022CA9D311B0AA
:101D0000F0BDF0B591B01F46002435E0CF48201853
:101D100086B2E000CE49451838780121A14008403C
:101D2000002814D0287800280ED13112684601719D
:101D3000467100218171012101A8C170042201A90D
:101D40008220FEF707FB00BF0220287013E02878EE
:101D5000022810D13112684601714671002181714B
:101D600001A8C170042201A98220FEF7F3FA002025
:101D70002870687000BF641C032CC7D311B0F0BD7D
:101D8000F7B5064615460C2101984843B149441859
:101D90006068002803D1207A02F008FA6060A07A17
:101DA000002807DD227A2946606801F034FF002808
:101DB00000D1FEBD032060722B46314620462768C5
:101DC0006268B847227A2946606801F0F9FE00BFD0
:101DD000EFE701460C2048439E4A801870470029CF
:101DE00003D05C2242439C4B9950704770B5044627
:101DF0000E461546082D0EDA5C216143964A891875
:101E0000084608302A46314601F0DAFE5C2060437D
:101E100091494018C57370BD70B504460E4615460D
:101E2000082D0EDA5C2161438B4A89180846103070
:101E30002A46314601F0C4FE5C20604386494018C2
:101E4000C57570BD30B55C224243834BD218403219
:101E5000127E3F2A18DA5C224243D2184032137EA7
:101E60005C2242437C4C12194032127E521CD4B286
:101E70005C224243784D5219403214765C22424330
:101E80002C4612191832D154744A13685C2242430A
:101E9000714C1219536030BD70B504460E4615469C
:101EA000002E1DD0002D1BD05C2161436A4A891889
:101EB000084618302A46314601F0ADFE00280FD002
:101EC0005C20604364494018403005765C216143E2
:101ED000614A8918084618302A46314601F070FEDA
:101EE00070BDF8B500249CE05C2060435A4940185E
:101EF0004030007E00287BDD00255C2060430858D0
:101F000000280FD05C216143534A8918486801F0CA
:101F100039FA06465C2060434F490858B04200D960
:101F20007EE000BF5C2060434B494018C07B002826
:101F30001FDD5C2060434018C17B5C206043464A43
:101F400080184030007E814213DA5C2363431646DA
:101F50009B19DA7B5C2363439B19194618315C2378
:101F600063439B191846083001F055FE002800D045
:101F70000125002D32D15C20604337494018C07DD7
:101F800000282BDD5C2060434018C17D5C2060434D
:101F9000314A80184030007E81421FDA5C2363435F
:101FA00016469B1918335C2666431746F6194036C9
:101FB000367E9E195C236343DB19DB7DF11A5C23BB
:101FC000634316469B19DA7D5C2363439B191846CD
:101FD000103001F020FE002800D00125012D08D18D
:101FE00000215C2060431C4A80184030017615E0D7
:101FF00015E05C236343184E9B1940331A7E5C2323
:1020000063439B1919461831E0B200F00FFD00211F
:102010005C206043324680184030017600BF00BF2C
:10202000641C062C00D25FE7F8BD70B504460D466F
:102030001646002C04D13146284601F004F904E08C
:10204000012C02D1284601F094FB70BD3010000035
:10205000D8000010F004001008130010C006001093
:1020600008B57D21C900FC480068FEF719F9002970
:102070000CD1FA480068012808D1F9A00068009046
:10208000032269468320FEF765F900BF08BD30B51D
:1020900002460B46F348002110E0555C68400024DE
:1020A00009E0C507ED0F002D03DD4010EE4D68403F
:1020B00000E04010641C082CF3DB491C9942ECDB67
:1020C00030BD10B5E94C0221E94801550020611FDF
:1020D00008710320FEF70AFF10BD10B5642100202F
:1020E00000F089FFE349012000F085FF10BD0028C2
:1020F00011D001280FD1E0490968002905D0DE4937
:102100000968491EDC4A116002E00A21DA4A1160BE
:102110000121DA4A116070471FB5D94B0FCB6C46CD
:102120000FC402226946D74801F03AFA1FBD0146A2
:10213000302901DB392905DD412901DB5A2901DD7F
:102140002D2901D1012070470020FCE701463129EB
:1021500005DB392903DC08462F38C0B27047302927
:1021600003D108462F38C0B2F8E7412905DB5A29C8
:1021700003DC08463738C0B2F0E72D2901D124200E
:10218000ECE72A2901D12520E8E72B2901D12620D7
:10219000E4E75F2901D12720E0E7FF20DEE710B563
:1021A0000246FA2002E01378521C58400B464C1E9F
:1021B000E1B2002BF7D110BD3EB50546002400204A
:1021C00000900190029068460570AF484068012871
:1021D00051D9AD48008841218901884213DBAA48C2
:1021E0000088AA4988420EDC0321684681700121DB
:1021F000C170A548007841218901401A401CC1B234
:102200006846017131E0A048008881214901884277
:1022100008D1684641780120014368464170002199
:10222000817022E09848008898494E39884205D14B
:102230000221684641700021817016E092480088B2
:1022400092493F39884205D10321684681700121B6
:1022500001720AE08C4800888C493E39884204D1DA
:102260000321684681700221017287484068401E40
:102270008549486021E08448406801281DD1824892
:10228000008841218901884212DB7F4800887F490C
:1022900088420DDC0321684681700021C1707A48B4
:1022A000007841218901401A401CC1B26846017181
:1022B00075484068401E7449486003216846FFF72E
:1022C0006EFF04466846C470200A694608710521FD
:1022D000684600F0B8FF3EBD30B501460A4600240E
:1022E0000023D078C006C00E95786D06ED0F6D0105
:1022F00028430446907883069B0E2B2C00DD132484
:102300002B2B00DD13236000614D40194078614D97
:10231000A87058005E4D401940785E4D68705800B6
:102320005B4D285C5B4D2870284630BDF8B50446EF
:102330000025002600BF04E0605D002800D0761C68
:102340006D1C042DF8DB002E06D0012E25D0022EA8
:102350005AD0032E7ED1F8E04FA0006800900021F3
:1023600068464170C170042269468220FDF7F2FF81
:102370000121684641700021C17004226946822013
:10238000FDF7E8FF0221684641700021C170042278
:1023900069468220FDF7DEFF42E13FA00068009021
:1023A000002168464170C170042269468220FDF711
:1023B000D1FF0121684641702078002802D02078A2
:1023C0006946C8706078002802D060786946C87095
:1023D000A078002802D0A0786946C870E07800286C
:1023E00002D0E0786946C870042269468220FDF771
:1023F000B1FF0221684641700021C1700422694684
:102400008220FDF7A7FF0BE123A0006800900121C7
:10241000684641700021C170042269468220FDF7A0
:1024200099FF2078002855D0002168464170217816
:10243000C170042269468220FDF78CFF6078002875
:102440002FD00221684641706178C170042269462C
:10245000822023E0E3E00000C0060010EC0400103E
:1024600000100400FFFF000001A0000001070010A1
:102470001D02000040420F0090060010940600105C
:10248000304A0000A0860100980600106F1000007E
:10249000AC490000A006001030000000FDF75AFF14
:1024A00052E0A07800280AD0022168464170A17845
:1024B000C170042269468220FDF74CFF44E00221EE
:1024C00068464170E178C170042269468220FDF7B8
:1024D00041FF39E06078002822D000216846417031
:1024E0006178C170042269468220FDF733FFA0782D
:1024F00000280AD0022168464170A178C1700422E8
:1025000069468220FDF726FF1EE0022168464170E1
:10251000E178C170042269468220FDF71BFF13E0B9
:10252000002168464170A178C1700422694682206A
:10253000FDF710FF022168464170E178C170042266
:1025400069468220FDF706FF6AE0FE4800680090B9
:102550002078002844D00021684641702178C1705D
:10256000042269468220FDF7F5FE6078002822D01B
:102570000121684641706178C17004226946822059
:10258000FDF7E8FEA07800280AD0022168464170D5
:10259000A178C170042269468220FDF7DBFE3DE090
:1025A000022168464170E178C170042269468220A8
:1025B000FDF7D0FE32E0012168464170A178C1707C
:1025C000042269468220FDF7C5FE0221684641705B
:1025D000E178C170042269468220FDF7BBFE1DE050
:1025E0000021684641706178C170042269468220EA
:1025F000FDF7B0FE012168464170A178C170042248
:1026000069468220FDF7A6FE022168464170E17806
:10261000C170042269468220FDF79CFE00E000BFE5
:1026200000BFF8BD70B592B006460C460025C649FD
:1026300003C9119110902079030001F0C3FC07FC3D
:10264000054799C757F0FC0065792D02A07905432D
:10265000002010901190002D08D0012D0AD0E81F05
:10266000F93800280AD0012810D10BE0032010A966
:1026700008700BE0012010A9087007E0002010A9E5
:10268000087003E0022010A9087000BF00BF10A866
:10269000007800280BD04022AB490831684601F091
:1026A0008FFA062269468220FDF754FE00BF10A96A
:1026B00008788021084310A9087010AA0321304629
:1026C000FFF75EFB002010901190B4E0E17910A8B4
:1026D0000170217A4170617A817010AA022130461E
:1026E000FFF74EFB00201090119000BFA079012849
:1026F0001BD16079012806D0022808D003280AD00F
:10270000052810D10BE00120904908700CE0022050
:102710008E49487008E003208C49887004E004204A
:102720008A49C87000E000BF1EE0A07900281BD1D4
:102730006079012806D0022808D003280AD005288D
:1027400010D10BE00020814908700CE000207F4987
:10275000487008E000207D49887004E000207B4933
:10276000C87000E000BF00BF7848FFF7DFFD62E0FF
:10277000A079D038C1B210A80170E1794170217AF6
:1027800081707348017810A8807881420BD170481D
:10279000407810A9C978884205D16D48807810A981
:1027A0000979884211D06A48C17810A8C170684878
:1027B000017910A801710021417110AA0F21304642
:1027C000FFF7DEFA00201090119034E0617910A834
:1027D000C170A1790171002141715D48C1785D48E6
:1027E000C079814205D15A4801795A48007A81421C
:1027F00013D05748017810A801705548417810A8A7
:1028000041705348817810A8817010AA0F2130467A
:10281000FFF7B6FA0020109011900CE0FFE7607906
:1028200010A9087010AA10213046FFF7A9FA00205D
:102830001090119000BF00BF12B070BD70B594B081
:1028400006460C4644A0006811902546297B10A836
:102850000172A889011210A84172A97B8172E889CE
:10286000011210A8C172297C0173288A011210A8D4
:102870004173A97C8173688A001210A9C8731D2155
:1028800089016868884253D110A8807A462802D00E
:1028900048284CD112E040222B49483101A801F0D0
:1028A0008FF910A8017B01A8C170062201A982201E
:1028B000FDF750FD204600F05CFF38E010A8007BDB
:1028C000082809D1102110A841710221C1710422E8
:1028D00011A98220FDF73EFD10A8007B102809D128
:1028E000102110A841710521C171042211A9822073
:1028F000FDF730FD10A8007B402809D1102110A859
:1029000041710121C171042211A98220FDF722FD2C
:1029100010A8007B002809D1102110A841710021C6
:10292000C171042211A98220FDF714FD00BF00BF70
:10293000032149026868884276D110A8807A40282D
:1029400071D10BE098240000404A0000A806001056
:10295000C1000010300600101000000010A8807B9D
:10296000522809D1092110A841710621C171042200
:1029700011A98220FDF7EEFC10A8807B622809D106
:10298000092110A841710121C171042211A98220DD
:10299000FDF7E0FC10A8807B002809D1092110A8D0
:1029A00041710021C171042211A98220FDF7D2FCDE
:1029B000032110A84171C07A602803D1282010A9F2
:1029C000C87109E010A9C97A08466038C10F091812
:1029D000C9050A0E10A9CA71042211A98220FDF7A7
:1029E000B9FC052110A84171007B602803D1282083
:1029F00010A9C87111E010A8007B5A2803D1242027
:102A000010A9C87109E010A9097B08466038C10FF8
:102A10000918C9050A0E10A9CA71042211A9822039
:102A2000FDF798FC00BF00BF14B070BDF0B587B0D3
:102A300007460C461646012F03D121463846FFF7BC
:102A4000FDFE002F54D1B11E2046FFF720FB0546A6
:102A5000B01E205C0190701E205C000201990843AA
:102A600001900198854201D007B0F0BD207801287F
:102A700000D0F9E7607808281AD101216846017270
:102A800008214172002181720221C172002101736B
:102A900001214173062102A8FFF7F9FA05466846AD
:102AA000857328126946C873082102A800F0CBFB81
:102AB000607810281BD101216846017210214172F3
:102AC000002181720121C1720173052102A8FFF763
:102AD000DEFA054668464573281269468873072161
:102AE00002A800F0B0FB21463846FFF79BFD00BF6F
:102AF00000BFB9E70B49088002210A4A51600A4920
:102B000000224B1F1B79002B01D1CA7809E0064B2C
:102B10005B1F1B79022B04D187239B005B5C613315
:102B2000DAB27047980600100107001010B50028AF
:102B300019DA904A03071B0F083B9B089B00D258E9
:102B40008307DC0EFF23A3409A434B071B0E840729
:102B5000E40EA3401A43874B0407240F083CA40843
:102B6000A4001A5118E0844A03231B02D2188308D8
:102B70009B00D2588307DC0EFF23A3409A434B07E8
:102B80001B0E8407E40EA3401A437B4B032424024C
:102B90001B198408A4001A5110BD10B54B20C001A8
:102BA000764908600020087175488860754808619A
:102BB0009820888188827448006801F08FF910BDE0
:102BC00070B505460C466D48056001460C716C48B1
:102BD00088606C4808619820888188826A4800680B
:102BE00001F07CF970BD70B504460D4604E0217813
:102BF000641C002001F0A2F82846691ECDB200280E
:102C0000F5D170BD10B50446002001F0BBF9A0421B
:102C100012D30CE0002001F055F8C2B25B480078F6
:102C20005A490978491C594B197059490A54204688
:102C3000611ECCB20028EDD110BD002801D00221C8
:102C400000E00021534A91607047524840680028D4
:102C500001D0012070470020FCE74F48C0690121E6
:102C600008434D49C86108460069012108434A49A3
:102C700008617047484800694008400046490861BB
:102C8000704710B545480068402108434349086033
:102C900010204349886048603F480068022108438B
:102CA0003D49086008460068400840000860084642
:102CB00040684008400048600846C068400840003E
:102CC000C8600120FFF7B9FFFFF7C7FF00211C20F4
:102CD000FFF72CFF1C2000F046F810BD10B500F0E7
:102CE000E4FF10BD01202F490860704701202D49E5
:102CF0004860704700202B4948608860704770B575
:102D000004460D4625480068FF2101310843234948
:102D100008600020234948600860C86003204861BB
:102D200029462046FDF7BCFA1E498861FFF7E2FFFD
:102D3000112000F018F802211120FFF7F7FE70BDF6
:102D400010B500F0B8FF10BD70B5002001F01AF901
:102D5000C4B2002C06D0002000F0B4FFC5B2284653
:102D6000FEF7A2F970BDC206D20E01219140024ABF
:102D7000116070471CED00E000E100E0301500102C
:102D800048150010E0150010E8060010AD06001010
:102D9000781600100000035000800350808004402B
:102DA000804004400000014030B513468B40840051
:102DB0006C4D2D5901248C40A4002B5130BD02468E
:102DC0009000684B18587F23DB01C018C06F0123A7
:102DD0008B401840C840C0B2704730B5002801D1C0
:102DE0000B290BD0012801D1002907D0012801D1DE
:102DF000012903D0012849D1022947D100280ED149
:102E00000B290CD1584B5B6BDB08DB00564C636322
:102E100023465B6B01242343534C636336E0012854
:102E20000ED100290CD1504B9B6BDB08DB004E4CC4
:102E3000A36323469B6B012423434B4CA36325E0F0
:102E400001280ED101290CD1474BDB6BDB08DB00DD
:102E5000454CE3632346DB6B01242343424CE3638D
:102E600014E0012811D102290FD13F4B40331B68D8
:102E7000DB08DB003C4C4034236023461B68012404
:102E80002343394C4034236000E030BD002A11D088
:102E90008300344CE3580124E4031B191B6801240C
:102EA0008C40234384002F4D2C590125ED036419D8
:102EB000236010E083002B4CE3580124E4031B192A
:102EC0001B6801248C40A3438400264D2C59012506
:102ED000ED036419236000BFD7E7244908607047F9
:102EE0002248006800283BD0214800682149096831
:102EF000884235D22048006800280ED101201E49A2
:102F000008601948C06AC008C0001749C8621B4859
:102F10000068091508431949086019480068002825
:102F200007D11848C06B0121890288431549C8633D
:102F300006E01448C06B0121890208431149C863A7
:102F40000F480068002801D1012000E000200C4952
:102F50000860084800680549096840180449086085
:102F600070470000C84A000040400440B40600100A
:102F7000B8060010C0060010B00600100080015016
:102F8000BC060010C03F015010B5002819DA594A9C
:102F900003071B0F083B9B089B00D2588307DC0EDE
:102FA000FF23A3409A434B071B0E8407E40EA34064
:102FB0001A43504B0407240F083CA408A4001A51DC
:102FC00018E04D4A03231B02D21883089B00D258F5
:102FD0008307DC0EFF23A3409A434B071B0E840795
:102FE000E40EA3401A43444B032424021B19840813
:102FF000A4001A5110BD70B504460D46002C1CD11A
:103000003E4800680121490208433C4908603C48A9
:1030100085613C493C480068FDF742F9401E38494B
:10302000C8600320486101204860122000F052F877
:1030300001211220FFF7A8FF1CE0012C1AD12F4814
:103040000068A10208432D490860304885612D4978
:103050002D480068FDF724F9401E2C49C860032064
:10306000486101204860132000F034F8012113204A
:10307000FFF78AFF70BD10B50446002C06D1122060
:1030800000F02FF802201E49486007E0012C05D10E
:10309000132000F026F802201C49486010BD10B52E
:1030A00017480068C007C00F002805D00120144948
:1030B00008600020FFF71BF810BD10B5134800682A
:1030C000C007C00F002804D0012010490860FFF796
:1030D0000EF810BDC206D20E01219140064A1160C1
:1030E0007047C206D20E01219140034A803211601E
:1030F000704700001CED00E000E100E0808004402B
:103100000040014040420F00E806001000800140EE
:10311000FFB583B0054616461F46152000F0D4F8CB
:103120008948006801210904084387490860012D86
:103130000BD18648006AC008C0008449086208466E
:10314000006A01210843814908628048406AC0083A
:10315000C0007E4948620846406A012108437B4915
:1031600048620846806AC008C00088620846806AD3
:1031700001210843754988627348006801210903E9
:1031800008437149086001208861084680690290FF
:103190006F4802990068FDF783F8000901900499CF
:1031A000FDF77EF8044630468030B90041180C988F
:1031B000C00008186749C860200A4860E0B208608B
:1031C0000846C068802188436249C860072088603B
:1031D000012D03D130205F494031C8605D4840690E
:1031E000029000BF5B484069602108406028F9D127
:1031F00002E058480068029056484069C007C00F76
:103200000028F6D101205349486015200121814052
:10321000514A116000BF022100F05EF807B0F0BD16
:1032200010B500204B494860152000F04DF810BD46
:1032300000BF48494969C907C90F0029F9D0454964
:103240000968C8B270470BE000BF424A52692023A8
:103250001A40002AF9D002783E4B1A60401C491EE1
:103260000029F1D1704710B5044621460020FEF731
:10327000E9FD10BD70B537488068C4B264106407BA
:10328000640F032C0FD133484069C5B29E202840FB
:10329000002801D02F480068E807C00F002812D08E
:1032A0002C4800680FE0022C05D12A490968C8B2F1
:1032B000FFF7D9FF07E0062C05D0012C03D12548E4
:1032C0004069C5B200BF70BDC206D20E0121914057
:1032D000214A80321160704710B5002819DA1F4A60
:1032E00003071B0F083B9B089B00D2588307DC0E8B
:1032F000FF23A3409A434B071B0E8407E40EA34011
:103300001A43164B0407240F083CA408A4001A51C2
:1033100018E0114A03231B02D21883089B00D258DD
:103320008307DC0EFF23A3409A434B071B0E840741
:10333000E40EA3401A43084B032424021B198408FB
:10334000A4001A5110BD0000808004408040044059
:10335000EC0600100080004000E100E01CED00E001
:1033600010B56C480068C007C00F002809D00120C4
:103370006849086068480068401C67490860FEF7B3
:103380006FFE10BD014664480068401A704710B5D2
:1033900062480068802108436049086060496148CC
:1033A0000068FCF77DFF401E5A49C8600320486151
:1033B0007D20C000886101204860102001218140EB
:1033C000594A116000BF012100F06CF810BD1020B7
:1033D00001218140544A8032116000BF02204D49D2
:1033E0004860704708B508E00021009102E00099AC
:1033F000491C009100996429F9D30146401E002917
:10340000F2D108BDF8B505460E46484800680028C8
:1034100011D10C2000F0CAFE444908600020096860
:1034200008604248006845603B48006880193F4991
:1034300009688860F8BD3D4807683C4609E02746B2
:103440006068A84204D1344800688019A060F1E7A0
:103450002468002CF3D1002F0CD00C2000F0A6FE25
:1034600004460020206065602B4800688019A06039
:103470003C60DFE700BF00BFDCE702462B48016885
:103480000CE04868904208D1234B88681B6898423A
:1034900001D8012070470020FCE709680029F0D11D
:1034A0000020F7E710B5002819DA214A03071B0F9F
:1034B000083B9B089B00D2588307DC0EFF23A340E8
:1034C0009A434B071B0E8407E40EA3401A43184B84
:1034D0000407240F083CA408A4001A5118E0124A5B
:1034E00003231B02D21883089B00D2588307DC0EEB
:1034F000FF23A3409A434B071B0E8407E40EA3400F
:103500001A43094B032424021B198408A4001A51EE
:1035100010BD000000C00040C006001080800440C4
:1035200040420F00E806001000E100E0C406001071
:103530001CED00E010B5F323FC4C6362002A0DD0B3
:10354000FB4BA362FB4BE3628BB22363CB00DB0C30
:103550000324A4032343F54C63630CE00023F34CE2
:10356000A362F54BE362002323638B000124E40391
:103570002343EE4C6363F14BEC4CA3630023E36302
:10358000EA4C403423606360A360E84B186200BFDC
:10359000E64B1B6A0124E4032340002BF8D110BD45
:1035A000F7B505461646E6480560E64800688642D7
:1035B0000CD0E5480068002806D0E348006800F019
:1035C000CBFD0020E0490860DE480660DE48006868
:1035D000002806D1DB490968C80000F0E7FDDA4998
:1035E0000860D8480068002807D0D6480068C200A4
:1035F000D5480199006800F0E3FAD44840680821F2
:103600000843D2494860D14880300068012149040C
:103610000843CE4980310860C4480068C007C00F25
:10362000002805D1C148006801210843BF4908604E
:103630000220C7490860BD48006840210843BB49D3
:103640000860C449681A8D4231D010DCC24828187D
:1036500000281AD0C149401800281AD0C049401883
:1036600000281BD0BF494018002834D11AE0B949BE
:103670004942401800281FD049104018002820D087
:10368000B9494018002826D120E0B848A749C860A9
:1036900025E0B6480A38A549C86020E0B448A349E7
:1036A000C8601CE0B1481438A049C86017E0AF48B2
:1036B0001E389E49C86012E0AC4828389B49C86053
:1036C0000DE0AA482A389949C86008E0A7482E3872
:1036D0009649C86003E0A5489449C86000BF00BF90
:1036E00000209249886108460068402188438F493C
:1036F00008600846006840084000086000BF8B482A
:103700000068C007C00F0028F9D100240DE0E300D5
:103710008D4F3F68DB191A79E3008B4F3F68F958EA
:10372000631CD8B2FFF706FF641C86480068844219
:10373000EDD30D20012181408E4A116000BF002190
:1037400000F024F9794800680A21084377490860A5
:10375000FEBD10B57C480068002806D07A48006895
:1037600000F0FAFC002078490860002075490860E4
:1037700010BD002800D170478168082901D90821AF
:1037800081600168002910D06949684A91626949DD
:10379000D162818889B211634168C900C90C0722CE
:1037A00052031143614A51630DE000215F4A916267
:1037B0006149D162002111634168890005225203E9
:1037C00011435A4A5163017A0907090F2322D20192
:1037D0001143564A91638189D163C189534A40326A
:1037E0001160018A5160418A9160F7214F4A51620C
:1037F0001321116200BF4D49096A0122D203114011
:103800000029F8D100BFB6E710B50446002C05D05A
:103810005948027821460120FEF73EFB10BDF8B55D
:103820007FE0424844680120C0033040002813D0A4
:1038300040202040002805D050480068401C4F49D7
:103840000860F8BD8020204000286AD04C480068FD
:10385000401C4B490860F4E76007400F002860D126
:1038600075046D0C002D5CD0202D5AD82F4840686F
:10387000102188432D49486000BF2C4880300068E3
:103880000121C90308400028F7D17F202749803152
:1038900048600846056000BF244880300068012168
:1038A000C90308400028F7D1364807601F48803018
:1038B00040694910084000280CD001271B4880307F
:1038C00000691A4980314969C904C90808432D496A
:1038D000486007E00027154880304069C004400D6B
:1038E000284948601148803080690007000F254949
:1038F00088600E488030C06988810C488030006A3A
:1039000081B22048C18109488030406A81B21D4897
:10391000018206488030806A81B21A484182FFF7EE
:1039200073FF02480669002E2ED07AE7000005409A
:10393000FFFF0000FFDF0000FC5F000088140000B4
:10394000D4060010DC060010D806001000800440E9
:103950008001054050C30000E0B1FFFF78ECFFFF9D
:1039600027F5FFFF4CEAFFFFB817FEFF31580000B4
:10397000231C000000E100E0E0060010CC0600106F
:10398000D0060010A017001000BF5AE710B500289D
:1039900019DA1A4A03071B0F083B9B089B00D258F1
:1039A0008307DC0EFF23A3409A434B071B0E8407BB
:1039B000E40EA3401A43114B0407240F083CA4084B
:1039C000A4001A5118E00E4A03231B02D2188308E0
:1039D0009B00D2588307DC0EFF23A3409A434B077A
:1039E0001B0E8407E40EA3401A43054B0324240254
:1039F0001B198408A4001A5110BD00001CED00E042
:103A000000E100E070B504460D466348006860437D
:103A10006249884205D9604801686048FCF740FC6B
:103A20000446641E002C00DA00245D480560012075
:103A30005B494860002048600120486000BF58484A
:103A40004068C007C00F0028F9D055484038866844
:103A5000760A7602304640210843204350494039D7
:103A600088605048806B802188434E49886300BF3E
:103A70004B484038C068C007C00F0028F8D003206A
:103A800047490863012048630020486301204863D8
:103A900000BF4348406BC007C00F0028F9D0204644
:103AA00070BDF3B585B004460020049001260120C6
:103AB00003900290002C09D021460698FCF7F0FBF9
:103AC00047B235480460012001900BE0002C09D179
:103AD00035490698FCF7E4FB47B233482E490860A5
:103AE00000200190002E00DC01260398012824D13B
:103AF0002E48844204D8002029494039086209E050
:103B00002B48844206D82948844203D901202449FD
:103B1000403908622348806B20218843214988630B
:103B2000002500E06D1CFF2DFCD90298012804D16E
:103B300038460199FFF766FF04901948866302989A
:103B4000012807D1144801680498401C41431948D2
:103B5000016003E0104800681649086031461548C6
:103B60000068FCF79DFB144908600D484030006870
:103B70000121090408430A494031086000200090EF
:103B800002E00098401C00900C4900988842F8D34D
:103B900072B607B0F0BD0000E406001000E1F505C4
:103BA0004080044000820440001BB700002D31011A
:103BB00080F0FA02E8060010EC0600101027000062
:103BC00003460B439B0703D009E008C9121F08C036
:103BD000042AFAD203E00B780370401C491C521EE1
:103BE000F9D27047D2B201E00270401C491EFBD2EC
:103BF00070470022F6E710B513460A4604461946F8
:103C0000FFF7F0FF204610BD421C0178401C002940
:103C1000FBD1801A704730B504460020034600E00F
:103C20005B1C934203D2E05CCD5C401BF8D030BDFE
:103C3000064C0125064E05E0E36807CC2B430C3CFF
:103C400098471034B442F7D3FCF73EFAD84B000043
:103C5000F84B000070B58C180578401C6B075B0FA3
:103C600001D10378401C2A1106D10278401C03E0E0
:103C700006780E70401C491C5B1EF9D12B0705D439
:103C80000023521E0DD40B70491CFAE70378401C28
:103C9000CB1A921C03E01D780D70491C5B1C521E50
:103CA000F9D5A142D8D3002070BD10B5FFF71EF89A
:103CB000FEF7E0FF10BD10B5FFF714F800F074F840
:103CC00010BD000038B50025ED43002815D1194C72
:103CD000A06800F0BDFA00280FD06946A06800F087
:103CE000BBFA68460188A378134AC8B2012B06D0F4
:103CF000022B0DD0032B0FD10CE0284638BD125CEF
:103D0000002A03D000221202104305E00122FAE744
:103D1000125CF8E7FF300130FF220132884203D005
:103D200011436846018002E091436846018088B2F1
:103D300038BD0000B4170010D84A000000282DD16B
:103D400070B50C461649182250434518686900F0B2
:103D50007FFA0646686900F09AFA8642F6D2A97898
:103D60001048012904D002290BD003290DD10AE003
:103D7000005D002803D000200002044305E001207C
:103D8000FAE7005DF8E7FF3401342146686900F086
:103D900082FA0120A881FEF7A9FF70BD70470000DC
:103DA000B4170010D84A000070B5494C002520789F
:103DB000411C21706178884236D32570E078411C1F
:103DC000C9B2E170002834D0012838D01C283FD077
:103DD0001F2847D0207981420CD1C01C2071E08877
:103DE0004008E080FEF731FF002803D0E088802102
:103DF0000843E080A07B411CA173022814D3A57363
:103E0000A089002810D0E07B411CE173002832D04B
:103E1000092838D00A283FD0208AC007C00FFEF7F3
:103E20000CFF208A40082082E1782A4800293CD0F3
:103E30003EE0FEF70AFF002808D1E580DAE7FEF74A
:103E400004FF002802D105202071D3E7E570D1E7F7
:103E5000A078002806D0FEF7F8FEE18800020843AB
:103E6000E080C7E7FEF7F1FE0028EFD0E188A06808
:103E700000F011FAEAE70020FEF7DFFE164960695C
:103E800000F0EAF9D0E7A078002805D0208AC00722
:103E9000C00FFEF7D2FEC7E70120FEF7CEFEE573A6
:103EA000606900F0D5F9A081BEE7A189002901D0A1
:103EB000057070BD01784A1C02707829F9D3FEF7AD
:103EC00019FF0120FEF7B9FEFEF7C7FE70BD000026
:103ED000B4170010F0060010C4170010002901D11B
:103EE00000207047F3B50F46254881B000210160DE
:103EF00041608160C160016141613E680125002E21
:103F000000D10126284634462146FCF7C9F9084667
:103F10006140484004464C40F6D10146754328466E
:103F2000FCF7BEF94100411800900198FEF7E7FE4A
:103F30002046182148431249C5192A794618B270FB
:103F400039580098FCF7ACF9401E7070A868706191
:103F50002869B0600023A9891A46A86800F05CF9B6
:103F60000023A98A1A46286900F056F9641C240621
:103F7000240EDDD0FEF785FE012003B0F0BD000069
:103F8000B4170010002801D00020704710B5024877
:103F9000806800F05DF910BDB41700100FB410B5C3
:103FA00004A9074B02AA039800F028F8044602A9C6
:103FB000002000F0CBF8204610BC08BC04B0184725
:103FC0004D41000030B47446641E2578641CAB4239
:103FD00004D3635D5B00E31830BC18471D46F8E767
:103FE00002E008C8121F08C1002AFAD17047002059
:103FF00001E001C1121F002AFBD17047FFB58DB04F
:104000000446002506E025280AD0109A0F9990470B
:10401000641C6D1C20780028F5D1284611B0F0BD35
:1040200000270121484A009700E00743641C2378D9
:104030000846203B98401042F7D120782E2817D10F
:10404000042007436078641C2A280CD10E98641C55
:1040500002C800910E900BE000990A2251433039BA
:104060004018641C00902078014630390929F3D9A2
:1040700020780028D1D0642808D0692806D0752877
:104080001ED0109A0F9990476D1C5BE00A200E9984
:10409000019001C90E91002802DA40422D2102E070
:1040A000390504D52B216A461172012103E0F90775
:1040B00004D02021F7E70BAE0B910DE00021FAE7C9
:1040C0000A200E99019001C90E91F7E70199FCF7BA
:1040D000E7F83031761E31700028F7D103A8801B35
:1040E00020300190780701D5009801E00120009070
:1040F0000199884201DD401A00E00020002700906D
:1041000006E002A8109AC05D0F9990476D1C7F1CB5
:104110000B988742F5DB04E0109A30200F99904706
:104120006D1C0099481E00900029F5DC05E03078F0
:10413000109A761C0F9990476D1C0199481E0190AA
:104140000029F4DC641C65E7092801000A68531C97
:104150000B6010707047000010B5002823D0124B80
:104160000022001F196803E0814203D80A4649680B
:104170000029F9D1002A0AD01368841A9C4204D17C
:10418000006818181060104602E0506000E01860E7
:10419000002907D002680B1A934203D10B68D2188A
:1041A00002604968416010BDF4060010F0B50B30A4
:1041B000C108C900144F0026144A0FE003688B425F
:1041C0000BD38B4205D95C1A4318456830C3083BB2
:1041D00000E04368136002C004E0021D106800287C
:1041E000ECD13046002803D13868002801D00020E7
:1041F000F0BD064A06481060064A121AD208D200DC
:1042000044C001203860D7E7F8060010F40600101B
:10421000D4170010D0170010002801D01C2901D895
:104220000020704772B6C903084A8918090CC18179
:104230004900091818318160014618310160416058
:104240000021818162B60120704700000000F4FF68
:10425000002800D080897047002815D08289002A64
:1042600013D072B6026812880A800168891C016046
:104270008189491E818182680168914202D3014689
:104280001831016062B60120704700207047002895
:1042900000D0C0897047002815D08289C3899A420E
:1042A00012D272B6426811804168891C41608189CE
:1042B000491C818182684168914202D301461831CC
:1042C000416062B601207047002070470000005036
:1042D00000000150000002500000035000845A0109
:1042E00000000000000000000000000000000000CE
:1042F00000000000000000000000000000000000BE
:1043000000000000000000000000000000000000AD
:10431000000000000000000000000000100300008A
:10432000000000000000000000000000000000008D
:10433000000000000000000000000000000000007D
:10434000000000000000000000000000000000006D
:104350000000000000000000000000001005000048
:10436000000000000000000000000000000000004D
:10437000000000000000000000000000000000003D
:10438000000000000000000000000000000000002D
:104390000000000000000000000000001004000009
:1043A000000000000000000000000000000000000D
:1043B00000000000000000000000000000000000FD
:1043C00000000000000000000000000000000000ED
:1043D00000000000000000000000000010060000C7
:1043E00000000000000000000000000000000000CD
:1043F00000000000000000000000000000000000BD
:1044000000000000000000000000000000000000AC
:104410000000000000000000000000001007000085
:10442000000000000000000000000000000000008C
:10443000000000000000000000000000000000007C
:10444000000000000000000000000000000000006C
:104450000000000000000000000000001008000044
:10446000000000000000000000000000000000004C
:10447000000000000000000000000000000000003C
:10448000000000000000000000000000000000002C
:104490000000000000000000000000001003000009
:1044A000000000000000000000000000000000000C
:1044B00000000000000000000000000000000000FC
:1044C00000000000000000000000000000000000EC
:1044D00000000000000000000000000010050000C7
:1044E00000000000000000000000000000000000CC
:1044F00000000000000000000000000000000000BC
:1045000000000000000000000000000000000000AB
:104510000000000000000000000000001004000087
:10452000000000000000000000000000000000008B
:10453000000000000000000000000000000000007B
:10454000000000000000000000000000000000006B
:104550000000000000000000000000001006000045
:10456000000000000000000000000000000000004B
:10457000000000000000000000000000000000003B
:10458000000000000000000000000000000000002B
:104590000000000000000000000000001007000004
:1045A000000000000000000000000000000000000B
:1045B00000000000000000000000000000000000FB
:1045C00000000000000000000000000000000000EB
:1045D00000000000000000000000000010080000C3
:1045E00000000000000000000000000000000000CB
:1045F00000000000000000000000000000000000BB
:1046000000000000000000000000000000000000AA
:104610000000000000000000000000001009000081
:10462000000000000000000000000000000000008A
:10463000000000000000000000000000000000007A
:10464000000000000000000000000000000000006A
:104650000000000000000000000000001009000140
:10466000000000000000000000000000000000004A
:10467000000000000000000000000000000000003A
:10468000000000000000000000000000000000002A
:104690000000000000000000000000001009000BF6
:1046A000000000000000000000000000000000000A
:1046B00000000000000000000000000000000000FA
:1046C00000000000000000000000000000000000EA
:1046D0000000000000000000000000001009000BB6
:1046E00000000000000000000000000000000000CA
:1046F00000000000000000000000000000000000BA
:1047000000000000000000000000000000000000A9
:104710000000000000000000000000001009000080
:104720000000000000000000000000000000000089
:104730000000000000000000000000000000000079
:104740000000000000000000000000000000000069
:10475000000000000000000000000000100900023E
:104760000000000000000000000000000000000049
:104770000000000000000000000000000000000039
:104780000000000000000000000000000000000029
:104790000000000000000000000000001009000BF5
:1047A0000000000000000000000000000000000009
:1047B00000000000000000000000000000000000F9
:1047C00000000000000000000000000000000000E9
:1047D0000000000000000000000000001009000BB5
:1047E00000000000000000000000000000000000C9
:1047F00000000000000000000000000000000000B9
:1048000000000000000000000000000000000000A8
:10481000000000000000000000000000100900037C
:104820000000000000000000000000000000000088
:104830000000000000000000000000000000000078
:104840000000000000000000000000000000000068
:10485000000000000000000000000000100900003F
:104860000000000000000000000000000000000048
:104870000000000000000000000000000000000038
:104880000000000000000000000000000000000028
:10489000000000000000000000000000100A0000FE
:1048A0000000000000000000000000000000000008
:1048B00000000000000000000000000000000000F8
:1048C00000000000000000000000000000000000E8
:1048D000000000000000000000000000100A0000BE
:1048E00000000000000000000000000000000000C8
:1048F00000000000000000000000000000000000B8
:1049000000000000000000000000000000000000A7
:10491000000000000000000000000000009C5AA5FC
:104920000000000000000000000000000000000087
:104930000000000000000000000000000000000077
:104940000000000000000000000000000000000067
:104950000000000000000000000000000082005085
:104960000000000000000000000000000000000047
:104970000000000000000000000000000000000037
:104980000000000000000000000000000000000027
:1049900000000000000000000000000000000050C7
:1049A0000000015000000250000003502030203170
:1049B000203220332034203520362037203820394B
:1049C0002041204220472048204C204D205020529A
:1049D000202D2020313231333233204320442045F2
:1049E00020462049204A204B204E204F2051205362
:1049F000205420552056205720582059205A313510
:104A00003137313930313233343536373839414244
:104A100047484C4D50522D202020204344454649C4
:104A20004A4B4E3051535455565758595A2020200E
:104A30004007000000000000000600000000000029
:104A40008000000000000000008200500000000014
:104A50000000000000000000000000000000000056
:104A60000000000000000000000000000000000046
:104A70000000000000000000000000000000000036
:104A80000000000000000000008200500000000054
:104A90000000000000000000000000000000000016
:104AA0000000000000000000000000000000000006
:104AB00000000000000000000000000000000000F6
:104AC0000000000000000000000000500000015045
:104AD000000002500000035000010100010000012D
:104AE00001000001000101000100000100010100BE
:104AF00000010100010000010100000100010100AE
:104B0000000101000100000100010100010000019D
:104B1000010000010001010001000001000101008D
:104B2000000101000100000100010100010000017D
:104B3000010000010001010000010100010000016D
:104B4000010000010001010001000001000101005D
:104B5000000101000100000101000001000101004D
:104B6000000101000100000100010100010000013D
:104B7000010000010001010000010100010000012D
:104B8000010000010001010001000001000101001D
:104B9000000101000100000100010100010000010D
:104BA00001000001000101000100000100010100FD
:104BB00000010100010000010100000100010100ED
:104BC00000010100010000010001010001000001DD
:104BD0000100000100010100F84B0000C0000010BE
:104BE0003C060000543C0000A84C0000FC060010ED
:104BF000D4180000EE3F0000A1CBE803080BFD2C09
:104C0000010809FD080916087264097E085AF49023
:104C1000690809869809D608616351161A01029A33
:104C2000530C5A550C1A030C8BBB181863A11A1A93
:104C3000040C8B1D1B245A1F0C29245A210C2924D7
:104C40009A23189A250C9A270C5A290C1A200C5AC8
:104C50002B0C1A080C9A2D0C9A2F305A310C1A066C
:104C60000C9A6F189AA90C9AAB0C7AAD48218B4913
:104C70001C186B031D0C012C2BFFFF04290651048B
:104C80003C9C5AA518085665723A312E3002E0094C
:104C900032303139313031300237050514F11FFF20
:084CA0001F42148B1BB704B185
:04000005000000C136
:00000001FF
