:020000040000FA
:10000000E0020020D5000000EF000000D107000052
:1000100000000000000000000000000000000000E0
:10002000000000000000000000000000F3000000DD
:100030000000000000000000F5000000130A0000AE
:100040000908000011080000190800002508000038
:1000500071060000570C0000770C0000830C0000B4
:10006000F1070000F9070000B9090000C509000008
:10007000E1070000E90700003F0C0000470C00000A
:100080004F0C0000F90000005F0C0000670C00003E
:100090006F0C0000010800007B0E0000F90000005A
:1000A00085010000F9000000670E00008F0C0000C1
:1000B00095040000F9000000F90600001106000098
:1000C0000348854600F04CF80048004789100000BE
:1000D000E002002009480A4A002100A1814200D91B
:1000E0000244084802600848804708480047FEE785
:1000F000FEE7FEE7FEE7FEE7FEE700000000002067
:100100000000000008ED00E0F90B0000C100000055
:1001100030B50B46014600202022012409E00D469F
:10012000D5409D4205D31D469540491B2546954027
:1001300040191546521E002DF1DC30BD03460B431D
:100140009B0703D009E008C9121F08C0042AFAD28D
:1001500003E00B780370401C491C521EF9D2704713
:10016000064C0125064E05E0E36807CC2B430C3C0A
:1001700098471034B442F7D3FFF7A6FFC010000031
:10018000E010000010B5C046C046C046C04610BDD5
:1001900030B587B0044601211C2000F009FD012183
:1001A00068460175417500218175C175017601218F
:1001B000417605AA0821402000F0AAFA00216846ED
:1001C000017505AA0921402000F0A2FA03220821A6
:1001D000402000F0E5FA05220921402000F0E0FA75
:1001E0000121212000F0E4FC03216846C1740221B2
:1001F00004A8017121461C48FFF78AFF054668469E
:10020000C27C04A800791018C11C2846FFF780FFA3
:10021000401EC1B204A88171022141710A210172FC
:100220000F216846C175002101740121417400212C
:10023000817404A800F032F900216846417301730B
:100240000A4801900A480290012101A800F0BEF876
:100250000121802000F0A0F9012200211C2000F0E3
:100260000BFA07B030BD000000093D00520300004A
:10027000FFFFFF1F1CB50621684600F0C8FE0121E4
:100280001C2000F095FC00206946087001220F2117
:1002900000F090FA6A460F21002000F039FA1CBDE8
:1002A00010B588B00446102104A800F0B0FE022169
:1002B00003A800F0ACFE0C21684600F0A8FE012166
:1002C000084600F075FC4021684601740021418217
:1002D000042141740794C901818200F059FC069001
:1002E00004A90B4800F07CFD0021094800F042FD04
:1002F0000121074800F03EFD0021054800F059FDAE
:1003000001220321072000F0B7F908B010BD00005A
:100310000001004010B5044600F004F82046FFF745
:10032000BFFF10BD1CB50621684600F070FE01211C
:100330001C2000F03DFC0021684601706A46022145
:10034000002000F0E5F901220221002000F028FA47
:100350000121684601706A460321002000F0D8F9A7
:1003600001220321002000F01BFA1CBD70B50446D9
:100370000E4615460121204600F01BFD0948844227
:100380000ED10020084908700848057002783146EF
:100390000748FFF7D3FE06480178204600F05AFDD3
:1003A00070BD00000001004000000020020000209D
:1003B0003C00002010B5044601210F2000F0F8FB9E
:1003C0002146002000F098FD10BD000010B5304A15
:1003D000127880239A4380322D4B1A701A46127D70
:1003E00012091201037A1B071B0F1A43284B1A75B7
:1003F0001A46127D20239A43254B1A75244B203B25
:1004000002689A63224A127D20239A432032204BAD
:100410001A751F4B203B42689A631A46926BDB05A4
:100420009A43437A5B109B070124A40723401A4395
:10043000174B203B9A631A46926B9B059A43437A6B
:100440005B07641023401A43114B203B9A63012938
:1004500008D10F4A927D047A0123A3401A430C4B22
:100460009A7507E00A4A927D047A0123A3409A43D1
:10047000074B9A75064A127880239A43044B1A70E8
:1004800000BF034A1278D209002AFAD110BD000039
:10049000A000034010B500F0C1F810BD3D49097837
:1004A0008022914380313B4A11703A492039896A50
:1004B0000902090A82791206120E12061143354A00
:1004C000203A91621146896A090A0902C2781143E9
:1004D000304A203A91621146896A7F221202914382
:1004E000027912027F231B021A401143294A203A43
:1004F00091621146896A1A029143427912041B02E1
:100500001A401143234A203A9162224909788022F5
:100510009143204A117000BF1E490978C90900297A
:10052000FAD11C49C979F0229143C2791201F02312
:100530001A401143174AD1711146C97909090901B5
:10054000027A1207120F1143124AD17111468978AB
:10055000202291438278520120231A4011430D4AF0
:1005600091701146C978082291430278D20008237D
:100570001A401143074AD1701146C978402291436D
:100580004278920140231A401143024AD17000215F
:1005900011717047A000034002460548012903D1AC
:1005A00003681343036002E00368934303607047EA
:1005B000A4000340002102490A6802430A60704710
:1005C000A400034001460022044A106808400028A5
:1005D00001D0012070470020FCE70000A400034088
:1005E0000A49096801600949496841600749896801
:1005F00081600649CA68C2600449A031C9781022E6
:1006000091431031014AA032D1707047000003407D
:1006100010B5C046C046C046C04610BD1FB5002438
:100620000120C003FFF7CEFF012819D1C003FFF757
:10063000C1FF00218020FFF7AFFF6846FFF7D0FF22
:1006400008490098086000BF05E002A8005D06495F
:100650000855601CC4B2082CF7DB01200349087060
:100660001FBD0000080000200C0000201C0000201E
:1006700010B5C046C04610BD70B504460E461546BE
:100680002046002805DBC206D20E01219140184AFF
:10069000116000BF3146204600F06EFC012D0AD1EA
:1006A0002046002805DBC206D20E01219140114AE6
:1006B000116000BF1BE02046002816DBC206D20EE8
:1006C000012191400B4A8032116000BF00BF00BF82
:1006D000BFF34F8F00BF00BF00BF00BF00BF00BF10
:1006E000BFF36F8F00BF00BF00BF00BF00BF70BD72
:1006F00080E200E000E100E010B5C046C046C04620
:10070000C04610BD02461068C840C007C00F704701
:1007100070B504460E4615461E4960180022314643
:1007200000F068F900201C496118B20088502A784E
:1007300018490C396018314600F05CF96A7815499F
:1007400010316018314600F055F9AA78114914317A
:100750006018314600F04EF9EA780E4918316018F9
:10076000314600F047F92A790A49203160183146AC
:1007700000F040F9094880680121C903884369797C
:10078000C9030122D20311400843044988600020B4
:1007900070BD00000C0D0240000C0240000F024032
:1007A00010B50346024818188C000251002010BDF5
:1007B000000C024070B504460D4616460349601809
:1007C0003246294600F016F9002070BD080D02409F
:1007D00008B50020009000BF00980028FCD008BD9C
:1007E00010B5C046C04610BD10B5C046C04610BDCD
:1007F00010B5C046C04610BD10B5C046C04610BDBD
:1008000010B5C046C04610BD10B5C046C04610BDAC
:1008100010B5C046C04610BD10B5C046C046C04663
:10082000C04610BD10B5C046C046C046C04610BD4B
:1008300010B50446002C28D158480078012823D14F
:10084000574800680321490288421AD15548017867
:100850005548C17053484178534881705148C07819
:1008600040210840402803D101214F48817108E010
:100870004C48C07820210840202802D102214A4853
:1008800081710020454908706BE0012C69D17D2001
:10089000C00000F0CDFB4548006839282AD84448FC
:1008A0000068392826D843480068012822D13F48EB
:1008B00001783D48C1703E4801783B4881703C4812
:1008C0000068392805D23A480068401C3849086059
:1008D00047E037480068392843D134480068401C55
:1008E000324908600846006839283AD10220314967
:1008F000086036E02D48006830282AD32C4800686C
:10090000302826D32B480068022822D127480178B6
:100910002548C17026480178234881702448006822
:10092000302805D922480068401E2149086018E097
:100930001F480068302814D11C480068401E1B491D
:1009400008600846006830280BD10120194908606A
:1009500007E0302016490860144908600120154955
:100960000860114840781049897848400E49C97894
:1009700048400D49097948400B49497948400A499E
:10098000897948400849C97948400749097A484067
:100990004006400E0449487210BD00001C000020B3
:1009A000080000200C0000201D0000203000002066
:1009B0002C0000203400002010B5C046C046C046C0
:1009C000C04610BD10B5C046C046C046C04610BDAA
:1009D00010B50B2204490548FFF7B0FB0B22034971
:1009E0000348FFF7C3FC10BD1D000020C600002017
:1009F0000001004010B5012A05D1036801248C4094
:100A00002343036004E0036801248C40A343036094
:100A100010BD10B5C046C04610BD000030B589B04D
:100A200000241422564904A8FFF788FB54481430C8
:100A300000680390002000900190029051480188C6
:100A4000684601814F4841886846C1804D48818889
:100A5000684681804B48C1886846418049482030BB
:100A6000018868460180484800680006450F2B0051
:100A700000F074FA05042E303E4178004248C06808
:100A80004005400D69460989884201D1089C1EE055
:100A90003D48C0684005400D6946C988884201D17B
:100AA000079C14E03848C0684005400D69468988B5
:100AB000884201D1069C0AE03348C0684005400DD9
:100AC00069464988884201D1059C00E0049C4BE0BE
:100AD0002E4C49E0684600882B4949698905890DF3
:100AE000884202D16846C48901E0684684893BE0B7
:100AF0000124E40338E02448C06B8007800F0328FA
:100B000029D1684600892049C9684905490D8842AC
:100B100001D1089C20E06846C0881B49C968490586
:100B2000490D884201D1079C16E068468088164925
:100B3000C9684905490D884201D1069C0CE0684608
:100B400040881149C9684905490D884201D1059C71
:100B500002E0049C00E00D4C0B48C06BC005000F88
:100B6000444301E0002400BF00BF0748006840057F
:100B7000410F2046C8400446204609B030BD000061
:100B8000A0100000000C10000020004000127A00AD
:100B900010B50024FFF742FF044604480068C00473
:100BA000810F2046C8400446204610BD002000406A
:100BB00070B504460D4620202040002809D0202191
:100BC0002046884304462A4621460648FFF712FF7E
:100BD00005E02A4621460348001FFFF70BFF0020CF
:100BE00070BD00002420004010B5FFF717FF014939
:100BF000086010BD3800002010B5FFF7F5FF10BDEC
:100C000010B500F009F800F013F800F001F810BD7D
:100C100010B5FFF72FFB10BD10B54B20C001FFF73B
:100C200079FB0248FFF7B4FA10BD0000204E000027
:100C300010B50A20FFF7BEFB00F07CF910BD10B51F
:100C4000C046C04610BD10B5C046C04610BD10B568
:100C5000C046C04610BD10B5C046C04610BD10B558
:100C6000C046C04610BD10B5C046C04610BD10B548
:100C7000C046C04610BD10B5C046C046C046C046BE
:100C800010BD10B500F008F8C046C04610BD10B544
:100C9000C046C04610BD000010B500212C4800F031
:100CA00092F800282BD00021294800F063F828484A
:100CB00000F0CCF82749284A127888542648007852
:100CC000401C2549087000202449087022480078FB
:100CD00023490978884212DB00201F49087001204F
:100CE0001E4908700B221B491E48FFF727FA0021F6
:100CF000174800F04AF80121154800F05AF8012180
:100D0000134800F060F8002821D00121104800F0BD
:100D100031F815480078401C1349087008460078DF
:100D20001249097888420BDB00200F490870012125
:100D3000074800F02AF80021054800F03AF806E0DC
:100D40000B48094A1278815C014800F083F810BD15
:100D5000000100407C00002001000020280000204D
:100D600003000020D100002000000020020000202D
:100D70003C00002070B504460D460022294620465E
:100D80001430FFF737FE002070BD70B504460D46E5
:100D900000222946201DFFF72DFE002070BD70B5F2
:100DA00004460D4601222946201DFFF723FE0020A0
:100DB00070BD70B504460D4601222946201DFFF77F
:100DC00019FE002070BD70B504460D460026294668
:100DD00020461030FFF796FC0646304670BD0000F6
:100DE000FEB505460C460127174903C9019100903D
:100DF000002C01D10420FEBD00206860608861786D
:100E00000843A18808432178084368602078402877
:100E100002D02078C02813D1A088C117C90D0918A5
:100E2000491289006A46515A8EB2E268B2401146B0
:100E3000A068FFF76DF9A86104212846FFF7AFFF0E
:100E400000273846D7E70000B810000001460868C0
:100E5000C0B2704702461068000A0002CBB21843C5
:100E600010600020704710B5C046C046C046C0465E
:100E7000C046C046C046C04610BD10B500F016F8CA
:100E800010BD00001E2002490860E1200860704784
:100E9000800F00400448406880210840002801D0AD
:100EA000012070470020FCE7800F004010B5FFF7DD
:100EB000F1FF00281AD000F035F80D480078C04343
:100EC0000B49087008460078002805D001220F2140
:100ED0000020FFF76FFC04E000220F211046FFF70F
:100EE00069FC04480078401C0249087010BD0000ED
:100EF000050000200400002030B503460C46012503
:100F0000204600F01FF80648406820218843590118
:100F1000202211400843024948600025284630BD80
:100F2000800F00401E2002490860E12008607047E1
:100F3000800F00401E2002490860E12008607047D1
:100F4000800F004004494968090909010207120F8E
:100F50001143014A51607047800F004030B474461D
:100F6000641E2578641CAB4204D3635D5B00E31808
:100F700030BC18471D46F8E710B5002819DB1A4A9F
:100F800003231B02D21883089B00D2588307DC0E70
:100F9000FF23A3409A438B071B0E8407E40EA34054
:100FA0001A43114B032424021B198408A4001A516C
:100FB00018E00E4A03071B0F083B9B089B00D25802
:100FC0008307DC0EFF23A3409A438B071B0E840785
:100FD000E40EA3401A43054B0407240F083CA40861
:100FE000A4001A5110BD000000E100E01CED00E07B
:100FF00002E008C8121F08C1002AFAD170477047E2
:10100000002001E001C1121F002AFBD1704710B57A
:101010000A460146002900D110BD02E000230B70F2
:10102000491C1346521E002BF8D100BFF4E7000004
:1010300070B50546114812494861002088610520B5
:10104000086110E000200E4988617D21C9000D482B
:101050000068FFF75DF8012109060C1A00BF084877
:101060008069A042FBD828466D1E0028EAD10448BA
:101070000069400840000249086170BDFFFFFF00A1
:1010800000E000E038000020FFF7BAFD06E0FFF7BF
:10109000F9FE0020FFF7CCFBFFF79AFCF7E7000012
:1010A00000093D0000127A000024F400408651013E
:1010B00000366E010080009604000000030000006E
:1010C000E0100000000000203C000000F00F0000D5
:1010D0001C1100003C000020A402000000100000D1
:1010E0000000000B00FF00000000000000000000F6
:1010F0000000000000000000000000000080000070
:101100000000000000AA0081000000003000000084
:0C111000300000000100000000093D005C
:04000005000000C136
:00000001FF
