:020000040000FA
:10000000C8020020D5000000EF000000110500002C
:1000100000000000000000000000000000000000E0
:10002000000000000000000000000000F3000000DD
:100030000000000000000000F5000000F3050000D3
:100040004905000051050000590500006505000044
:10005000B10300002908000049080000550800000D
:10006000310500003905000099050000A5050000D4
:1000700021050000290500001108000019080000F2
:1000800021080000F90000003108000039080000D4
:1000900041080000410500004B0A0000F900000083
:1000A00085010000F9000000370A00006108000027
:1000B000EF020000F90000003904000071030000A5
:1000C0000348854600F04CF800480047FF0B00004D
:1000D000C802002009480A4A002100A1814200D933
:1000E0000244084802600848804708480047FEE785
:1000F000FEE7FEE7FEE7FEE7FEE700000000002067
:100100000000000008ED00E0D9070000C100000079
:1001100030B50B46014600202022012409E00D469F
:10012000D5409D4205D31D469540491B2546954027
:1001300040191546521E002DF1DC30BD03460B431D
:100140009B0703D009E008C9121F08C0042AFAD28D
:1001500003E00B780370401C491C521EF9D2704713
:10016000064C0125064E05E0E36807CC2B430C3C0A
:1001700098471034B442F7D3FFF7A6FF380C0000BD
:10018000580C000010B5C046C046C046C04610BD61
:100190001CB50621684600F022FD01211C2000F05C
:1001A000F7FA00206946087001220F2100F0A2F939
:1001B0006A460F21002000F04BF91CBD10B588B035
:1001C0000446102104A800F00AFD022103A800F053
:1001D00006FD0C21684600F002FD0121084600F0F2
:1001E000D7FA4021684601740021418204214174FC
:1001F0000794C901818200F0BBFA069004A90B485C
:1002000000F0D6FB0021094800F09CFB01210748C3
:1002100000F098FB0021054800F0B3FB0122032108
:10022000072000F0C9F808B010BD00000001004030
:1002300010B5044600F004F82046FFF7BFFF10BDDC
:100240001CB50621684600F0CAFC01211C2000F004
:100250009FFA0021684601706A460221002000F0E2
:10026000F7F801220221002000F03AF90121684646
:1002700001706A460321002000F0EAF80122032100
:10028000002000F02DF91CBD70B504460E46154641
:100290000121204600F075FB094884420ED1002060
:1002A0000849087008480570027831460748FFF78A
:1002B00045FF06480178204600F0B4FB70BD000001
:1002C0000001004001000020030000204800002041
:1002D00010B501210F2000F05BFA0521012000F08C
:1002E000F3FB01220321162000F066F810BD10B5C3
:1002F00000F044F810BD000002460548012903D172
:1003000003681343036002E003689343036070478C
:10031000A4000340002102490A6802430A607047B2
:10032000A400034001460022044A10680840002847
:1003300001D0012070470020FCE70000A40003402A
:100340000A490968016009494968416007498968A3
:1003500081600649CA68C2600449A031C978102288
:1003600091431031014AA032D17070470000034020
:1003700010B5C046C046C046C04610BD10B50120ED
:10038000C003FFF7CFFF01280CD1C003FFF7C2FF66
:1003900000218020FFF7B0FF0348FFF7D1FF0120C5
:1003A0000249087010BD0000240000200000002059
:1003B00010B5C046C04610BD70B504460E46154681
:1003C0002046002805DBC206D20E01219140184AC2
:1003D000116000BF3146204600F0B6FB012D0AD166
:1003E0002046002805DBC206D20E01219140114AA9
:1003F000116000BF1BE02046002816DBC206D20EAB
:10040000012191400B4A8032116000BF00BF00BF44
:10041000BFF34F8F00BF00BF00BF00BF00BF00BFD2
:10042000BFF36F8F00BF00BF00BF00BF00BF70BD34
:1004300080E200E000E100E010B5C046C046C046E2
:10044000C04610BD02461068C840C007C00F7047C4
:1004500070B504460E4615461E4960180022314606
:1004600000F0B8F800201C496118B20088502A78C2
:1004700018490C396018314600F0ACF86A78154913
:1004800010316018314600F0A5F8AA7811491431EE
:100490006018314600F09EF8EA780E49183160186D
:1004A000314600F097F82A790A4920316018314620
:1004B00000F090F8094880680121C90388436979F0
:1004C000C9030122D2031140084304498860002077
:1004D00070BD00000C0D0240000C0240000F0240F5
:1004E00010B50346024818188C000251002010BDB8
:1004F000000C024070B504460D46164603496018CC
:100500003246294600F066F8002070BD080D024012
:1005100008B50020009000BF00980028FCD008BD5E
:1005200010B5C046C04610BD10B5C046C04610BD8F
:1005300010B5C046C04610BD10B5C046C04610BD7F
:1005400010B5C046C04610BD10B5C046C04610BD6F
:1005500010B5C046C04610BD10B5C046C046C04626
:10056000C04610BD10B5C046C046C046C04610BD0E
:1005700010B506480078012807D10822044905482B
:10058000FFF782FE00200149087010BD1F00002007
:10059000170000200001004010B5C046C046C0460C
:1005A000C04610BD10B5C046C046C046C04610BDCE
:1005B00010B5082204490548FFF7C0FD0822034989
:1005C0000348FFF761FE10BD070000200F00002068
:1005D0000001004010B5012A05D1036801248C40B8
:1005E0002343036004E0036801248C40A3430360B9
:1005F00010BD10B5C046C04610BD000030B589B072
:1006000000241422564904A8FFF798FD54481430DA
:1006100000680390002000900190029051480188EA
:10062000684601814F4841886846C1804D488188AD
:10063000684681804B48C1886846418049482030DF
:10064000018868460180484800680006450F2B0075
:1006500000F06CFA05042E303E4178004248C06834
:100660004005400D69460989884201D1089C1EE079
:100670003D48C0684005400D6946C988884201D19F
:10068000079C14E03848C0684005400D69468988D9
:10069000884201D1069C0AE03348C0684005400DFD
:1006A00069464988884201D1059C00E0049C4BE0E2
:1006B0002E4C49E0684600882B4949698905890D17
:1006C000884202D16846C48901E0684684893BE0DB
:1006D0000124E40338E02448C06B8007800F03281E
:1006E00029D1684600892049C9684905490D8842D1
:1006F00001D1089C20E06846C0881B49C9684905AB
:10070000490D884201D1079C16E068468088164949
:10071000C9684905490D884201D1069C0CE068462C
:1007200040881149C9684905490D884201D1059C95
:1007300002E0049C00E00D4C0B48C06BC005000FAC
:10074000444301E0002400BF00BF074800684005A3
:10075000410F2046C8400446204609B030BD000085
:10076000180C0000000C10000020004000127A005D
:1007700010B50024FFF742FF044604480068C00497
:10078000810F2046C8400446204610BD002000408E
:1007900070B504460D4620202040002809D02021B5
:1007A0002046884304462A4621460648FFF712FFA2
:1007B00005E02A4621460348001FFFF70BFF0020F3
:1007C00070BD00002420004010B5FFF717FF01495D
:1007D000086010BD2000002010B5FFF7F5FF10BD28
:1007E00010B500F009F800F00DF800F001F810BDA8
:1007F00010B5FFF7CDFC10BD10B54B20C001FFF7C1
:1008000017FD10BD10B5FFF763FD00F07BF910BDBB
:1008100010B5C046C04610BD10B5C046C04610BD9C
:1008200010B5C046C04610BD10B5C046C04610BD8C
:1008300010B5C046C04610BD10B5C046C04610BD7C
:1008400010B5C046C04610BD10B5C046C046C04633
:10085000C04610BD10B500F007F8C046C04610BD38
:1008600010B5C046C04610BD10B500212C4800F0A0
:1008700092F800282BD00021294800F063F828487E
:1008800000F0CCF82749284A127888542648007886
:10089000401C25490870002024490870224800782F
:1008A00023490978884212DB00201F490870012083
:1008B0001E49087008221B491E48FFF73FFC002113
:1008C000174800F04AF80121154800F05AF80121B4
:1008D000134800F060F8002821D00121104800F0F2
:1008E00031F815480078401C134908700846007814
:1008F0001249097888420BDB00200F49087001215A
:10090000074800F02AF80021054800F03AF806E010
:100910000B48094A1278815C014800F083F810BD49
:100920000001004088000020020000201F0000207D
:100930000400002017000020010000200300002018
:100940004800002070B504460D4600222946204686
:100950001430FFF73FFE002070BD70B504460D4611
:1009600000222946201DFFF735FE002070BD70B51E
:1009700004460D4601222946201DFFF72BFE0020CC
:1009800070BD70B504460D4601222946201DFFF7B3
:1009900021FE002070BD70B504460D460026294694
:1009A00020461030FFF74EFD0646304670BD000071
:1009B000FEB505460C460127174903C90191009071
:1009C000002C01D10420FEBD0020686060886178A1
:1009D0000843A188084321780843686020784028AC
:1009E00002D02078C02813D1A088C117C90D0918DA
:1009F000491289006A46515A8EB2E268B2401146E5
:100A0000A068FFF785FBA86104212846FFF7AFFF28
:100A100000273846D7E70000300C00000146086880
:100A2000C0B2704702461068000A0002CBB21843F9
:100A300010600020704710B5C046C046C046C04692
:100A4000C046C046C046C04610BD10B500F016F8FE
:100A500010BD00001E2002490860E12008607047B8
:100A6000800F00400448406880210840002801D0E1
:100A7000012070470020FCE7800F004010B5FFF711
:100A8000F1FF00281AD000F035F80D480078C04377
:100A90000B49087008460078002805D001220F2174
:100AA0000020FFF727FD04E000220F211046FFF78A
:100AB00021FD04480078401C0249087010BD000068
:100AC000060000200500002030B503460C46012535
:100AD000204600F01FF8064840682021884359014D
:100AE000202211400843024948600025284630BDB5
:100AF000800F00401E2002490860E1200860704716
:100B0000800F00401E2002490860E1200860704705
:100B1000800F004004494968090909010207120FC2
:100B20001143014A51607047800F004030B4744651
:100B3000641E2578641CAB4204D3635D5B00E3183C
:100B400030BC18471D46F8E710B5002819DB1A4AD3
:100B500003231B02D21883089B00D2588307DC0EA4
:100B6000FF23A3409A438B071B0E8407E40EA34088
:100B70001A43114B032424021B198408A4001A51A0
:100B800018E00E4A03071B0F083B9B089B00D25836
:100B90008307DC0EFF23A3409A438B071B0E8407B9
:100BA000E40EA3401A43054B0407240F083CA40895
:100BB000A4001A5110BD000000E100E01CED00E0AF
:100BC00002E008C8121F08C1002AFAD17047704716
:100BD000002001E001C1121F002AFBD1704710B5AF
:100BE0000A460146002900D110BD02E000230B7027
:100BF000491C1346521E002BF8D100BFF4E7FFF743
:100C0000EFFD07E0FFF7D4FC03E0FFF723FFFFF75A
:100C1000AFFCFAE7F6E7000000093D0000127A0099
:100C20000024F4004086510100366E0100800096D9
:100C30000400000003000000580C00000000002029
:100C400024000000C00B00007C0C000024000020E9
:100C5000A4020000D00B0000000000000800FF5AB2
:100C6000A505821003100000000000000000000035
:0C0C7000000000000000000000093D0032
:04000005000000C136
:00000001FF
