:020000040000FA
:1000000030020020D5000000EF000000E1060000F3
:1000100000000000000000000000000000000000E0
:10002000000000000000000000000000F3000000DD
:100030000000000000000000F5000000770700004D
:1000400019070000210700002907000035070000FC
:1000500081050000D10B0000F10B0000FD0B00003A
:100060000107000009070000410700004D070000DC
:10007000F1060000F9060000B90B0000C10B0000FA
:10008000C90B0000F9000000D90B0000E10B0000D3
:10009000E90B000011070000250C0000F90000002A
:1000A00093010000F9000000110C0000090C000091
:1000B00069030000F9000000090600004105000086
:1000C0000348854600F04CF80048004785010000D1
:1000D0003002002009480A4A002100A1814200D9CB
:1000E0000244084802600848804708480047FEE785
:1000F000FEE7FEE7FEE7FEE7FEE700000000002067
:100100000000000008ED00E0790B0000C1000000D5
:1001100030B50B46014600202022012409E00D469F
:10012000D5409D4205D31D469540491B2546954027
:1001300040191546521E002DF1DC30BD03460B431D
:100140009B0703D009E008C9121F08C0042AFAD28D
:1001500003E00B780370401C491C521EF9D2704713
:10016000064C0125064E05E0E36807CC2B430C3C0A
:1001700098471034B442F7D3FFF7A6FFD00E000023
:10018000F00E000010B500F0F7FC00F033FE002088
:1001900010BD10B5C046C046C046C04610BD1CB517
:1001A00001211C2000F080FC012168464170817013
:1001B0000021C17001714171012181716A460021E4
:1001C000C02000F035FA0021684641706A460121DE
:1001D000C02000F02DFA6A460521C02000F028FA60
:1001E00001220021C02000F071FA01221146C02036
:1001F00000F06CFA0521C02000F00CFA1CBD0000D4
:1002000000B587B00121212000F04EFC002104A898
:10021000817103216846C174022104A801714171F2
:100220000A2101720F216846C17500210174012164
:1002300041740021817404A800F09AF800216846F6
:10024000417301730948019009480290012101A8F6
:1002500000F026F80121802000F008F90122002199
:100260001C2000F091F907B000BD0000520300000F
:10027000FFFFFF1F10B5002000F032FC012000F04E
:1002800065FC032000F03CFC0121084600F078FAF0
:100290000A2000F083FD012000F042FC10BD0000A8
:1002A00010B5304A127880239A4380322D4B1A7051
:1002B0001A46127D12091201037A1B071B0F1A43FB
:1002C000284B1A751A46127D20239A43254B1A751E
:1002D000244B203B02689A63224A127D20239A43D2
:1002E0002032204B1A751F4B203B42689A631A46F6
:1002F000926BDB059A43437A5B109B070124A407AA
:1003000023401A43174B203B9A631A46926B9B0576
:100310009A43437A5B07641023401A43114B203BF6
:100320009A63012908D10F4A927D047A0123A340E0
:100330001A430C4B9A7507E00A4A927D047A01230E
:10034000A3409A43074B9A75064A127880239A4332
:10035000044B1A7000BF034A1278D209002AFAD15E
:1003600010BD0000A000034010B500F0EFF810BD74
:100370003D4909788022914380313B4A11703A49C6
:100380002039896A0902090A82791206120E1206B8
:100390001143354A203A91621146896A090A0902D5
:1003A000C2781143304A203A91621146896A7F220D
:1003B00012029143027912027F231B021A40114359
:1003C000294A203A91621146896A1A029143427978
:1003D00012041B021A401143234A203A9162224917
:1003E000097880229143204A117000BF1E49097884
:1003F000C9090029FAD11C49C979F0229143C2796F
:100400001201F0231A401143174AD1711146C979DC
:1004100009090901027A1207120F1143124AD17118
:1004200011468978202291438278520120231A4074
:1004300011430D4A91701146C97808229143027800
:10044000D20008231A401143074AD1701146C978D7
:10045000402291434278920140231A401143024ABC
:10046000D170002111717047A00003400246054879
:10047000012903D103681343036002E00368934337
:1004800003607047A40003400021034A03490B683E
:10049000134003430B607047FF002AFFA400034092
:1004A00001460022044A10680840002801D00120BB
:1004B00070470020FCE70000A40003400A490968D7
:1004C00001600949496841600749896881600649B6
:1004D000CA68C2600449A031C97810229143103122
:1004E000014AA032D1707047000003400F4949789B
:1004F00080229143027CD20180231A4011430B4A8F
:1005000051700A4A603A016811614168516181681D
:100510009161C168D161017C012906D103498978C3
:10052000402291434031014A91707047A00003403E
:10053000024949780143014A51707047A0000340C5
:1005400010B5C046C046C046C04610BD10B501201B
:10055000C003FFF7A5FF01280CD1C003FFF794FFEC
:1005600000218020FFF782FF0348FFF7A7FF01204B
:100570000249087010BD00000800002000000020A3
:1005800010B5C046C04610BD70B504460E461546AF
:100590002046002805DBC206D20E01219140184AF0
:1005A000116000BF3146204600F07EFB012D0AD1CC
:1005B0002046002805DBC206D20E01219140114AD7
:1005C000116000BF1BE02046002816DBC206D20ED9
:1005D000012191400B4A8032116000BF00BF00BF73
:1005E000BFF34F8F00BF00BF00BF00BF00BF00BF01
:1005F000BFF36F8F00BF00BF00BF00BF00BF70BD63
:1006000080E200E000E100E010B5C046C046C04610
:10061000C04610BD70B504460D460449601801225D
:10062000294600F099F8002070BD0000140D02402A
:1006300070B504460E461546214960180022314621
:1006400000F08AF800201F496118B20088502A780B
:100650001B49091F6018314600F07EF86A78184976
:100660000C396018314600F077F8AA781449103137
:100670006018314600F070F8EA78114914316018BA
:10068000314600F069F82A790D4918316018314671
:1006900000F062F86A790A4920316018314600F0AA
:1006A0005BF8094880680121C9038843A979C90317
:1006B0000122D2031140084303498860002070BD25
:1006C0000C0D0240000C0240000F024010B5034622
:1006D000024818188C000251002010BD000C024086
:1006E00008B50020009000BF00980028FCD008BD8D
:1006F00010B5C046C04610BD10B5C046C04610BDBE
:1007000010B5C046C04610BD10B5C046C04610BDAD
:1007100010B5C046C04610BD10B5C046C04610BD9D
:1007200010B5C046C04610BD10B5C046C046C04654
:10073000C04610BD10B5C046C046C046C04610BD3C
:1007400010B5C046C046C046C04610BD10B5C04634
:10075000C046C046C04610BD10B5012A05D1036889
:1007600001248C402343036004E0036801248C408F
:10077000A343036010BD10B5C046C04610BD0000C5
:10078000F8B505460C46002700F074FA002C01D09D
:10079000012000E0002004466248066A032D55D07F
:1007A00006DC002D09D0012D1AD0022D71D139E0BF
:1007B000042D70D0482DF9D193E05A4800684008C4
:1007C0004000E107C90F08435649086000BF002CEC
:1007D00005D05448C0680005C00F0028F7D09BE042
:1007E0005048006A01210907884340184D490862B2
:1007F0004D48C068032108434B49C8604948006818
:1008000002218843610002221140084345490860E3
:1008100000BF002C05D0434800694006C00F0028E7
:10082000F7D079E03F48006804218843A100042202
:10083000114008433B49086000BF002C05D03948EF
:100840004069C004C00F0028F7D065E03548006A51
:100850000121090788434018324908623348C068BB
:100860000321890308433149C8602E4800680821E4
:100870008843E1000822114008432A49086000BF6C
:10088000002C05D0274880694006C00F0028F7D00B
:1008900042E03FE0FFE72348006A01210904884362
:1008A0004018204908622248006840084000401C67
:1008B0001F490860142000F043FA1A48006810210C
:1008C000884321011022114008431649086000BFE7
:1008D000002C05D01348C06B4003C00F0028F7D090
:1008E0001AE0104840308069012109038843210340
:1008F00001221203114008430A494031886100BFB8
:10090000002C06D00748403080690005C00F002841
:10091000F6D001E0042700BF00BF02480662384657
:10092000F8BD000000200040401D0240800D024044
:100930000024004030B589B000241422564904A890
:10094000FFF7FCFB5448143000680390002000902F
:100950000190029051480188684601814F484188C2
:100960006846C1804D488188684681804B48C1886F
:1009700068464180494820300188684601804848DF
:1009800000680006450F2B0000F080F905042E30AA
:100990003E4178004248C0684005400D69460989DB
:1009A000884201D1089C1EE03D48C0684005400DCA
:1009B0006946C988884201D1079C14E03848C0685C
:1009C0004005400D69468988884201D1069C0AE0AD
:1009D0003348C0684005400D69464988884201D1C6
:1009E000059C00E0049C4BE02E4C49E068460088E2
:1009F0002B4949698905890D884202D16846C48915
:100A000001E0684684893BE00124E40338E024489F
:100A1000C06B8007800F032829D1684600892049D0
:100A2000C9684905490D884201D1089C20E0684603
:100A3000C0881B49C9684905490D884201D1079CF6
:100A400016E0684680881649C9684905490D8842FC
:100A500001D1069C0CE0684640881149C9684905E7
:100A6000490D884201D1059C02E0049C00E00D4C38
:100A70000B48C06BC005000F444301E0002400BFD9
:100A800000BF074800684005410F2046C8400446A3
:100A9000204609B030BD0000B80E0000000C100068
:100AA0000020004000127A0070B504460D46202058
:100AB0002040002809D020212046884304462A46A9
:100AC00021460648FFF748FE05E02A46214603482E
:100AD000001FFFF741FE002070BD000024200040F1
:100AE00010B501460020054A12690C239A438B0079
:100AF0000C2423401A43014B1A6110BD0020004012
:100B000010B501460020054A126930239A430B01B3
:100B1000302423401A43014B1A6110BD00200040CD
:100B200070B504460025264600F0A4F80648006883
:100B3000E02188437101E022114008430249086026
:100B400000F012F8284670BD002000400146002049
:100B5000044A1269920892008B079B0F1A43014BBB
:100B60001A6170470020004010B5FFF7E3FE01490D
:100B7000086010BD0400002010B50D4949888805A3
:100B8000800D0C494969890A89020143094A51616A
:100B90000749203909894805400D1146C968C90A25
:100BA000C9020143D160FFF7DFFF00F03FF810BD3D
:100BB000200C10000020004010B5C046C04610BDFB
:100BC00010B5C046C04610BD10B5C046C04610BDE9
:100BD00010B5C046C04610BD10B5C046C04610BDD9
:100BE00010B5C046C04610BD10B5C046C04610BDC9
:100BF00010B5C046C046C046C04610BD10B5C04680
:100C0000C046C046C04610BD10B5C046C04610BD67
:100C100010B5C046C046C046C046C046C046C046E5
:100C2000C04610BD10B5C046C04610BD0E49086A8A
:100C3000096A01221207914389180B4A11620B4974
:100C4000C9680B4A1140094AD16011460968B022AF
:100C50001143064A11601146096AB0221143034A42
:100C6000116201490862704700200040401D0240A7
:100C70004FFF0000024803498860034888607047BE
:100C80005A5A000000200040A5A5000030B4744668
:100C9000641E2578641CAB4204D3635D5B00E318DB
:100CA00030BC18471D46F8E710B5002819DB1A4A72
:100CB00003231B02D21883089B00D2588307DC0E43
:100CC000FF23A3409A438B071B0E8407E40EA34027
:100CD0001A43114B032424021B198408A4001A513F
:100CE00018E00E4A03071B0F083B9B089B00D258D5
:100CF0008307DC0EFF23A3409A438B071B0E840758
:100D0000E40EA3401A43054B0407240F083CA40833
:100D1000A4001A5110BD000000E100E01CED00E04D
:100D200002E008C8121F08C1002AFAD170477047B4
:100D3000002001E001C1121F002AFBD17047000012
:100D400070B50546114812494861002088610520A8
:100D500008610FE000200E4988610E490E480068C6
:100D6000FFF7D6F9012109060C1A00BF084880696F
:100D7000A042FBD828466D1E0028EBD1044800692C
:100D8000400840000249086170BD0000FFFFFF00FD
:100D900000E000E0A08601000400002070B50546D8
:100DA000114812494861002088610520086110E05F
:100DB00000200E4988617D21C9000D480068FFF7B9
:100DC000A7F9012109060C1A00BF08488069A04252
:100DD000FBD828466D1E0028EAD104480069400867
:100DE00040000249086170BDFFFFFF0000E000E025
:100DF000040000200024FFF73DFAFFF7D0F9FFF7C9
:100E0000FFF952E02948007801284DD100202749F8
:100E10000870274800794006C00F002800D044E041
:100E2000234800682349086008464068000900011B
:100E30001F4909790907090F08431E4948600846F8
:100E40004068802188431A490979C909C90180226B
:100E500011400843174948600846406840218843CC
:100E6000134909794906C90F8901402211400843F5
:100E700010494860002407E00D480830015D0D4826
:100E800008300155601CC4B2094800790007000F02
:100E9000A042F1DC0748FFF729FB1020FFF748FBD1
:100EA00001218020FFF7E2FA00BFABE7000000203D
:100EB000080000201800002000093D0000127A0000
:100EC0000024F4004086510100366E010080009637
:100ED000F00E00000000002008000000200D0000BF
:100EE000F80E00000800002028020000300D00006D
:080EF0000000000000093D00B4
:04000005000000C136
:00000001FF
