:020000040000FA
:10000000E8020020D5000000EF000000F10700002A
:1000100000000000000000000000000000000000E0
:10002000000000000000000000000000F3000000DD
:100030000000000000000000F5000000630900005F
:1000400029080000310800003908000045080000B8
:1000500075060000910D0000B10D0000BD0D0000FF
:1000600011080000190800002D09000039090000DE
:100070000108000009080000790D0000810D000052
:10008000890D0000F9000000990D0000A10D00008D
:10009000A90D000021080000B30F0000F9000000C6
:1000A00085010000F90000009F0F0000C90D00004D
:1000B00065040000F9000000FD06000035060000A0
:1000C0000348854600F04CF800480047D91100006D
:1000D000E802002009480A4A002100A1814200D913
:1000E0000244084802600848804708480047FEE785
:1000F000FEE7FEE7FEE7FEE7FEE700000000002067
:100100000000000008ED00E0310D0000C10000001B
:1001100030B50B46014600202022012409E00D469F
:10012000D5409D4205D31D469540491B2546954027
:1001300040191546521E002DF1DC30BD03460B431D
:100140009B0703D009E008C9121F08C0042AFAD28D
:1001500003E00B780370401C491C521EF9D2704713
:10016000064C0125064E05E0E36807CC2B430C3C0A
:1001700098471034B442F7D3FFF7A6FF0C120000E3
:100180002C12000010B5C046C046C046C04610BD87
:100190001CB501211C2000F063FD0121684601709F
:1001A000417000218170C1700171012141716A4665
:1001B0000821402000F0BCFA0021684601706A4620
:1001C0000921402000F0B4FA6A460821002000F01E
:1001D000AFFA01220821402000F0F2FA01220921A1
:1001E000402000F0EDFA0821002000F093FA1CBD39
:1001F00010B586B004460121212000F031FD002118
:1002000003A8817103216846C173022103A801710B
:1002100041710A2101720F216846C17400210173E6
:10022000012141730021817303A800F01FF900210F
:100230006846417201720948009009480190012105
:10024000684600F0ABF80121802000F08DF9012212
:1002500000211C2000F012FA06B010BD520300006D
:10026000FFFFFF1F1CB50621684600F078FF012143
:100270001C2000F0F5FC00206946087001220F21C7
:1002800000F0A8FA6A460F21002000F051FA1CBDC8
:1002900010B5012000F000FD032000F033FD032025
:1002A00000F00AFD0121084600F060FB0A2000F082
:1002B00067FF012000F010FD10BD000010B588B0F0
:1002C0000446102104A800F04AFF022103A800F010
:1002D00046FF0C21684600F042FF0121084600F06D
:1002E000BFFC402168460174002141820421417411
:1002F0000794C901818200F0A3FC069004A90B4871
:1003000000F00AFE0021094800F0D0FD0121074855
:1003100000F0CCFD0021054800F0E7FD012203219B
:10032000072000F0ABF908B010BD0000000100404C
:1003300010B5044600F004F82046FFF7BFFF10BDDB
:100340001CB50621684600F00AFF01211C2000F0C0
:1003500087FC0021684601706A460221002000F0F7
:10036000E7F901220221002000F02AFA0121684663
:1003700001706A460321002000F0DAF9012203210E
:10038000002000F01DFA1CBD10B501210F2000F067
:1003900067FC0921002000F04BFE10BD10B5304A6B
:1003A000127880239A4380322D4B1A701A46127DA0
:1003B00012091201037A1B071B0F1A43284B1A75E7
:1003C0001A46127D20239A43254B1A75244B203B55
:1003D00002689A63224A127D20239A432032204BDE
:1003E0001A751F4B203B42689A631A46926BDB05D5
:1003F0009A43437A5B109B070124A40723401A43C6
:10040000174B203B9A631A46926B9B059A43437A9B
:100410005B07641023401A43114B203B9A63012968
:1004200008D10F4A927D047A0123A3401A430C4B52
:100430009A7507E00A4A927D047A0123A3409A4301
:10044000074B9A75064A127880239A43044B1A7018
:1004500000BF034A1278D209002AFAD110BD000069
:10046000A000034010B500F0EBF810BD3D4909783D
:100470008022914380313B4A11703A492039896A80
:100480000902090A82791206120E12061143354A30
:10049000203A91621146896A090A0902C278114319
:1004A000304A203A91621146896A7F2212029143B2
:1004B000027912027F231B021A401143294A203A73
:1004C00091621146896A1A029143427912041B0211
:1004D0001A401143234A203A916222490978802226
:1004E0009143204A117000BF1E490978C9090029AB
:1004F000FAD11C49C979F0229143C2791201F02343
:100500001A401143174AD1711146C97909090901E5
:10051000027A1207120F1143124AD17111468978DB
:10052000202291438278520120231A4011430D4A20
:1005300091701146C978082291430278D2000823AD
:100540001A401143074AD1701146C978402291439D
:100550004278920140231A401143024AD17000218F
:1005600011717047A000034002460548012903D1DC
:1005700003681343036002E003689343036070471A
:10058000A4000340002102490A6802430A60704740
:10059000A400034001460022044A106808400028D5
:1005A00001D0012070470020FCE70000A4000340B8
:1005B0000A49096801600949496841600749896831
:1005C00081600649CA68C2600449A031C978102216
:1005D00091431031014AA032D170704700000340AE
:1005E0000F49497880229143027CD20180231A402E
:1005F00011430B4A51700A4A603A0168116141681F
:10060000516181689161C168D161017C012906D184
:1006100003498978402291434031014A91707047E3
:10062000A0000340024949780143014A51707047D4
:10063000A000034010B5C046C046C046C04610BD2D
:1006400010B50120C003FFF7A5FF01280CD1C0039E
:10065000FFF798FF00218020FFF786FF0348FFF790
:10066000A7FF01200249087010BD000044000020CF
:100670000000002010B5C046C04610BD70B504464D
:100680000E4615462046002805DBC206D20E012183
:100690009140184A116000BF3146204600F014FD19
:1006A000012D0AD12046002805DBC206D20E012109
:1006B0009140114A116000BF1BE02046002816DB64
:1006C000C206D20E012191400B4A8032116000BF58
:1006D00000BF00BFBFF34F8F00BF00BF00BF00BF10
:1006E00000BF00BFBFF36F8F00BF00BF00BF00BFE0
:1006F00000BF70BD80E200E000E100E010B5C04640
:10070000C046C046C04610BD02461068C840C0077B
:10071000C00F704770B504460D46044960180122A9
:10072000294600F00FF9002070BD0000140D0240B2
:1007300070B504460E4615461E4960180022314623
:1007400000F000F900201C496118B20088502A7896
:1007500018490C396018314600F0F4F86A781549E8
:1007600010316018314600F0EDF8AA7811491431C3
:100770006018314600F0E6F8EA780E491831601842
:10078000314600F0DFF82A790A49203160183146F5
:1007900000F0D8F8094880680121C90388436979C5
:1007A000C9030122D2031140084304498860002094
:1007B00070BD00000C0D0240000C0240000F024012
:1007C00010B50346024818188C000251002010BDD5
:1007D000000C024070B504460D46164603496018E9
:1007E0003246294600F0AEF8002070BD080D0240E8
:1007F00008B50020009000BF00980028FCD008BD7C
:1008000010B5C046C04610BD10B5C046C04610BDAC
:1008100010B5C046C04610BD10B5C046C04610BD9C
:1008200010B5C046C04610BD10B5C046C04610BD8C
:1008300010B5C046C04610BD10B5C046C046C04643
:10084000C04610BD10B5C046C046C046C04610BD2B
:1008500070B505460024002D54D152E02F48007891
:1008600001284DD100202D4908702D4800794006FF
:10087000C00F002800D044E02948006829490860DA
:100880000846406800090001254909790907090F50
:10089000084324494860084640688021884320492D
:1008A0000979C909C9018022114008431D494860DE
:1008B0000846406840218843194909794906C90F0B
:1008C000890140221140084316494860002407E08E
:1008D00013480830015D134808300155601CC4B24C
:1008E0000F4800790007000FA042F1DC0D48FFF728
:1008F00077FE1020FFF796FE01218020FFF734FEDF
:1009000000BFABE7012D08D107480068102804D2CA
:1009100005480068401C0449086070BD00000020C4
:1009200044000020540000203C00002010B5C046C8
:10093000C046C046C04610BD10B5C046C046C04601
:10094000C04610BD10B5012A05D1036801248C40B2
:100950002343036004E0036801248C40A343036045
:1009600010BD10B5C046C04610BD000070B50546AC
:100970000C46002600F08EFB002C01D0012000E088
:1009800000200446032D4DD006DC002D09D0012D9A
:100990001AD0022D75D131E0042D5ED0482DF9D149
:1009A00070E04748006840084000E107C90F08436D
:1009B0004349086000BF002C05D04148C0680005CD
:1009C000C00F0028F7D078E03E48C06803210843F4
:1009D0003C49C8603A48006802218843610002220D
:1009E000114008433649086000BF002C05D0344848
:1009F00000694006C00F0028F7D05EE0304800686C
:100A000004218843A1000422114008432C490860B6
:100A100000BF002C05D02A484069C004C00F002840
:100A2000F7D04AE02848C0680321890308432649D3
:100A3000C8602348006808218843E100082211406B
:100A400008431F49086000BF002C05D01C4880697E
:100A50004006C00F0028F7D02FE019480068102189
:100A6000884321011022114008431549086000BF46
:100A7000002C05D01248C06B4003C00F0028F7D0EF
:100A80001BE018E00E4840308069012109038843CB
:100A900021030122120311400843094940318861B2
:100AA00000BF002C06D00648403080690005C00F0A
:100AB0000028F6D001E0042600BF00BF304670BD1C
:100AC00000200040401D0240800D024030B589B03A
:100AD00000241422564904A8FFF730FB5448143070
:100AE0000068039000200090019002905148018816
:100AF000684601814F4841886846C1804D488188D9
:100B0000684681804B48C18868464180494820300A
:100B1000018868460180484800680006450F2B00A0
:100B200000F0C4FA05042E303E4178004248C06807
:100B30004005400D69460989884201D1089C1EE0A4
:100B40003D48C0684005400D6946C988884201D1CA
:100B5000079C14E03848C0684005400D6946898804
:100B6000884201D1069C0AE03348C0684005400D28
:100B700069464988884201D1059C00E0049C4BE00D
:100B80002E4C49E0684600882B4949698905890D42
:100B9000884202D16846C48901E0684684893BE006
:100BA0000124E40338E02448C06B8007800F032849
:100BB00029D1684600892049C9684905490D8842FC
:100BC00001D1089C20E06846C0881B49C9684905D6
:100BD000490D884201D1079C16E068468088164975
:100BE000C9684905490D884201D1069C0CE0684658
:100BF00040881149C9684905490D884201D1059CC1
:100C000002E0049C00E00D4C0B48C06BC005000FD7
:100C1000444301E0002400BF00BF074800684005CE
:100C2000410F2046C8400446204609B030BD0000B0
:100C3000EC110000000C10000020004000127A00AF
:100C400010B50024FFF742FF044604480068C004C2
:100C5000810F2046C8400446204610BD00200040B9
:100C600070B504460D4620202040002809D02021E0
:100C70002046884304462A4621460648FFF762FE7E
:100C800005E02A4621460348001FFFF75BFE0020CF
:100C900070BD00002420004010B501460020054A28
:100CA00012690C239A438B000C2423401A43014BF6
:100CB0001A6110BD0020004010B501460020054A11
:100CC000126930239A430B01302423401A43014B0D
:100CD0001A6110BD0020004070B50446002526466C
:100CE00000F0D8F906480068E02188437101E0224D
:100CF000114008430249086000F012F8284670BD10
:100D00000020004001460020044A12699208920027
:100D10008B079B0F1A43014B1A617047002000405C
:100D200010B5FFF7D3FE0149086010BD4000002058
:100D300010B5FFF7F5FF10BD10B500F009F800F091
:100D400015F800F001F810BD10B5FFF78BFA10BDD3
:100D500010B54B20C001FFF7EBFAFFF799FAFFF748
:100D600017FA7D20C000FFF743FA10BD10B5FFF75A
:100D70000BFB00F07BF910BD10B5C046C04610BD9E
:100D800010B5C046C04610BD10B5C046C04610BD27
:100D900010B5C046C04610BD10B5C046C04610BD17
:100DA00010B5C046C04610BD10B5C046C04610BD07
:100DB00010B5C046C046C046C04610BD10B500F0D4
:100DC00007F8C046C04610BD10B5C046C04610BDAD
:100DD00010B500212C4800F092F800282BD00021FB
:100DE000294800F063F8284800F0CCF82749284A41
:100DF0001278885426480078401C25490870002045
:100E0000244908702248007823490978884212DB77
:100E100000201F49087001201E49087008221B4944
:100E20001E48FFF78BF90021174800F04AF801210E
:100E3000154800F05AF80121134800F060F8002826
:100E400021D00121104800F031F815480078401CED
:100E500013490870084600781249097888420BDB6C
:100E600000200F4908700121074800F02AF80021EE
:100E7000054800F03AF806E00B48094A1278815C10
:100E8000014800F083F810BD00010040A8000020D8
:100E9000020000203A000020040000203200002060
:100EA00001000020030000206800002070B5044607
:100EB0000D460022294620461430FFF743FD00204E
:100EC00070BD70B504460D4600222946201DFFF76F
:100ED00039FD002070BD70B504460D46012229463B
:100EE000201DFFF72FFD002070BD70B504460D4694
:100EF00001222946201DFFF725FD002070BD70B599
:100F000004460D460026294620461030FFF7FCFB1C
:100F10000646304670BD0000FEB505460C4601276A
:100F2000174903C901910090002C01D10420FEBD96
:100F300000206860608861780843A18808432178B0
:100F4000084368602078402802D02078C02813D158
:100F5000A088C117C90D0918491289006A46515A5B
:100F60008EB2E268B2401146A068FFF7D1F8A861DE
:100F700004212846FFF7AFFF00273846D7E70000D7
:100F80000412000001460868C0B2704702461068AB
:100F9000000A0002CBB2184310600020704710B561
:100FA000C046C046C046C046C046C046C046C04611
:100FB00010BD10B500F016F810BD00001E2002494B
:100FC0000860E12008607047800F004004484068D6
:100FD00080210840002801D0012070470020FCE754
:100FE000800F004010B5FFF7F1FF00281AD000F085
:100FF00035F80D480078C0430B4908700846007862
:10100000002805D001220F210020FFF7E3FB04E0B8
:1010100000220F211046FFF7DDFB04480078401C3A
:101020000249087010BD00000600002005000020E5
:1010300030B503460C460125204600F01FF806484F
:101040004068202188435901202211400843024969
:1010500048600025284630BD800F00401E20024910
:101060000860E12008607047800F00401E200249A0
:101070000860E12008607047800F0040044949681B
:10108000090909010207120F1143014A5160704713
:10109000800F004002480349886003488860704719
:1010A0005A5A000000200040A5A5000030B4744644
:1010B000641E2578641CAB4204D3635D5B00E318B7
:1010C00030BC18471D46F8E710B5002819DB1A4A4E
:1010D00003231B02D21883089B00D2588307DC0E1F
:1010E000FF23A3409A438B071B0E8407E40EA34003
:1010F0001A43114B032424021B198408A4001A511B
:1011000018E00E4A03071B0F083B9B089B00D258B0
:101110008307DC0EFF23A3409A438B071B0E840733
:10112000E40EA3401A43054B0407240F083CA4080F
:10113000A4001A5110BD000000E100E01CED00E029
:1011400002E008C8121F08C1002AFAD17047704790
:10115000002001E001C1121F002AFBD1704710B529
:101160000A460146002900D110BD02E000230B70A1
:10117000491C1346521E002BF8D100BFF4E70000B3
:1011800070B5054611481249486100208861052064
:10119000086110E000200E4988617D21C9000D48DA
:1011A0000068FEF7B5FF012109060C1A00BF0848C8
:1011B0008069A042FBD828466D1E0028EAD1044869
:1011C0000069400840000249086170BDFFFFFF0050
:1011D00000E000E040000020FFF7AEFD04E0FFF774
:1011E000EDFE0020FFF734FBF9E7000000093D00A9
:1011F00000127A000024F4004086510100366E018E
:101200000080009604000000030000002C12000083
:101210000000002044000000401100007012000097
:1012200044000020A4020000501100000000000053
:101230000800FF005A00A5058210031000005AA5FF
:1012400005821003100000000000000000000000F4
:10125000000000000000000000000000000000008E
:1012600000000000000000000000000000093D0038
:04000005000000C136
:00000001FF
