:020000040000FA
:10000000C0020020D5000000EF0000009D080000A5
:1000100000000000000000000000000000000000E0
:10002000000000000000000000000000F3000000DD
:100030000000000000000000F5000000A70900001B
:10004000D5080000DD080000E5080000F108000008
:100050003D070000EB0B00000B0C0000170C00002C
:10006000BD080000C5080000710900007D090000FE
:10007000AD080000B5080000D30B0000DB0B00004A
:10008000E30B0000F9000000F30B0000FB0B000085
:10009000030C0000CD0800000F0E0000F900000066
:1000A00085010000F9000000FB0D0000230C00009A
:1000B0000D050000F9000000C5070000DD06000086
:1000C0000348854600F04CF800480047C30F000085
:1000D000C002002009480A4A002100A1814200D93B
:1000E0000244084802600848804708480047FEE785
:1000F000FEE7FEE7FEE7FEE7FEE700000000002067
:100100000000000008ED00E08D0B0000C1000000C1
:1001100030B50B46014600202022012409E00D469F
:10012000D5409D4205D31D469540491B2546954027
:1001300040191546521E002DF1DC30BD03460B431D
:100140009B0703D009E008C9121F08C0042AFAD28D
:1001500003E00B780370401C491C521EF9D2704713
:10016000064C0125064E05E0E36807CC2B430C3C0A
:1001700098471034B442F7D3FFF7A6FFF80F0000FA
:100180001810000010B5C046C046C046C04610BD9D
:1001900030B587B0044601211C2000F0D3FC0121BA
:1001A00068460175417500218175C175017601218F
:1001B000417605AA0821402000F010FB0021684686
:1001C000017505AA0921402000F008FB032208213F
:1001D000402000F04BFB05220921402000F046FBA7
:1001E0000121212000F0AEFC2548844206D20B20DC
:1001F0006946C874022104A8017108E021488442BC
:1002000005D203206946C874022104A80171214661
:100210001D48FFF77DFF05466846C27C04A80079AB
:100220001018C11C2846FFF773FF401EC1B204A876
:100230008171022141710A2101720F216846C17545
:1002400000210174012141740021817404A800F08F
:1002500061F900216846417301730C4801900C4814
:100260000290012101A800F0EDF80121802000F0AA
:10027000CFF9012200211C2000F064FA07B030BD44
:10028000C05D000040420F0000093D005203000025
:10029000FFFFFF1FF0B585B006460F461546002448
:1002A00000960198000900012907090F08430190F1
:1002B0008021019888430190402101988843019052
:1002C00000BF04E0395D02A80155601CC4B2AC4215
:1002D000F8DB684600F0D8F9102000F0F7F90121AA
:1002E000802000F095F905B0F0BD1CB506216846E8
:1002F00000F057FE01211C2000F024FC002069467C
:10030000087001220F2100F0BBFA6A460F2100207D
:1003100000F064FA1CBD000010B588B0044610213E
:1003200004A800F03EFE022103A800F03AFE0C21D2
:10033000684600F036FE0121084600F003FC40212B
:100340006846017400214182042141740794C90167
:10035000818200F0E7FB069004A90B4800F00AFD3B
:100360000021094800F0D0FC0121074800F0CCFC36
:100370000021054800F0E7FC01220321072000F0DE
:10038000E1F908B010BD00000001004010B50446BE
:1003900000F004F82046FFF7BFFF10BD1CB5062192
:1003A000684600F0FEFD01211C2000F0CBFB00217F
:1003B000684601706A460221002000F00FFA01220F
:1003C0000221002000F052FA0121684601706A46BD
:1003D0000321002000F002FA01220321002000F096
:1003E00045FA1CBD70B504460E461546012120464F
:1003F00000F0A9FC094884420ED100200849087089
:1004000008480570027831460748FFF797FE06480E
:100410000178204600F0E8FC70BD000000010040BB
:1004200000000020020000204000002010B504461B
:1004300001210F2000F086FB2146002000F026FD60
:1004400010BD000010B5304A127880239A438032E4
:100450002D4B1A701A46127D12091201037A1B07DE
:100460001B0F1A43284B1A751A46127D20239A43F4
:10047000254B1A75244B203B02689A63224A127D51
:1004800020239A432032204B1A751F4B203B426891
:100490009A631A46926BDB059A43437A5B109B077B
:1004A0000124A40723401A43174B203B9A631A46A2
:1004B000926B9B059A43437A5B07641023401A436F
:1004C000114B203B9A63012908D10F4A927D047A8F
:1004D0000123A3401A430C4B9A7507E00A4A927D08
:1004E000047A0123A3409A43074B9A75064A12786F
:1004F00080239A43044B1A7000BF034A1278D20932
:10050000002AFAD110BD0000A000034010B500F091
:10051000EBF810BD3D4909788022914380313B4A78
:1005200011703A492039896A0902090A827912064A
:10053000120E12061143354A203A91621146896A19
:10054000090A0902C2781143304A203A91621146E1
:10055000896A7F2212029143027912027F231B02D1
:100560001A401143294A203A91621146896A1A02B7
:100570009143427912041B021A401143234A203A44
:1005800091622249097880229143204A117000BF6C
:100590001E490978C9090029FAD11C49C979F022F4
:1005A0009143C2791201F0231A401143174AD171C5
:1005B0001146C97909090901027A1207120F11437C
:1005C000124AD171114689782022914382785201D2
:1005D00020231A4011430D4A91701146C978082210
:1005E00091430278D20008231A401143074AD17080
:1005F0001146C978402291434278920140231A4023
:100600001143024AD170002111717047A0000340CC
:1006100002460548012903D103681343036002E041
:100620000368934303607047A4000340002102491C
:100630000A6802430A607047A40003400146002292
:10064000044A10680840002801D0012070470020AB
:10065000FCE70000A40003400A4909680160094959
:10066000496841600749896881600649CA68C26073
:100670000449A031C978102291431031014AA032B7
:10068000D1707047000003400F49497880229143A0
:10069000027CD20180231A4011430B4A51700A4A4E
:1006A000603A016811614168516181689161C16876
:1006B000D161017C012906D1034989784022914307
:1006C0004031014A91707047A000034002494978C7
:1006D0000143014A51707047A000034010B5C04665
:1006E000C046C046C04610BD1FB500240120C0034F
:1006F000FFF7A4FF012819D1C003FFF797FF0021DE
:100700008020FFF785FF6846FFF7A6FF084900989D
:10071000086000BF05E002A8005D06490855601C9E
:10072000C4B2082CF7DB0120034908701FBD00008C
:10073000080000200C0000201C00002010B5C0465E
:10074000C04610BD70B504460E461546204600282A
:1007500005DBC206D20E01219140184A116000BF8C
:100760003146204600F0D2FB012D0AD12046002858
:1007700005DBC206D20E01219140114A116000BF73
:100780001BE02046002816DBC206D20E0121914054
:100790000B4A8032116000BF00BF00BFBFF34F8F14
:1007A00000BF00BF00BF00BF00BF00BFBFF36F8F1F
:1007B00000BF00BF00BF00BF00BF70BD80E200E00F
:1007C00000E100E010B5C046C046C046C04610BDBE
:1007D00002461068C840C007C00F704770B5044695
:1007E0000E4615461E4960180022314600F0CCF82E
:1007F00000201C496118B20088502A7818490C3929
:100800006018314600F0C0F86A7815491031601858
:10081000314600F0B9F8AA78114914316018314610
:1008200000F0B2F8EA780E4918316018314600F04D
:10083000ABF82A790A4920316018314600F0A4F853
:10084000094880680121C90388436979C9030122E5
:10085000D2031140084304498860002070BD0000A5
:100860000C0D0240000C0240000F024010B5034680
:10087000024818188C000251002010BD000C0240E4
:1008800070B504460D46164603496018324629469F
:1008900000F07AF8002070BD080D024008B5002075
:1008A000009000BF00980028FCD008BD10B5C046DD
:1008B000C04610BD10B5C046C04610BD10B5C046FC
:1008C000C04610BD10B5C046C04610BD10B5C046EC
:1008D000C04610BD10B5C046C04610BD10B5C046DC
:1008E000C04610BD10B5C046C046C046C04610BD8B
:1008F00010B5C046C046C046C04610BD10B504463F
:10090000002C0DD10C480078012814D108220B4985
:100910000B480068FFF7BEFC0020074908700AE09A
:10092000012C08D107480068102804D20548006847
:10093000401C0449086010BD1C0000200C00002071
:10094000080000203800002010B506480078012873
:1009500007D1082204490548FFF744FD002001495A
:10096000087010BD350000202D000020000100405F
:1009700010B5C046C046C046C04610BD10B5C04602
:10098000C046C046C04610BD10B5012A05D1036857
:1009900001248C402343036004E0036801248C405D
:1009A000A343036010BD10B5C046C04610BD000093
:1009B00030B589B000241422564904A8FFF7BEFBC5
:1009C0005448143000680390002000900190029079
:1009D00051480188684601814F4841886846C18076
:1009E0004D488188684681804B48C188684641806F
:1009F0004948203001886846018048480068000660
:100A0000450F2B0000F074FA05042E303E417800AB
:100A10004248C0684005400D69460989884201D1B5
:100A2000089C1EE03D48C0684005400D6946C988E5
:100A3000884201D1079C14E03848C0684005400D49
:100A400069468988884201D1069C0AE03348C0681B
:100A50004005400D69464988884201D1059C00E067
:100A6000049C4BE02E4C49E0684600882B494969BC
:100A70008905890D884202D16846C48901E068462B
:100A800084893BE00124E40338E02448C06B8007FC
:100A9000800F032829D1684600892049C968490583
:100AA000490D884201D1089C20E06846C0881B4956
:100AB000C9684905490D884201D1079C16E068467E
:100AC00080881649C9684905490D884201D1069CAC
:100AD0000CE0684640881149C9684905490D8842BB
:100AE00001D1059C02E0049C00E00D4C0B48C06B5A
:100AF000C005000F444301E0002400BF00BF0748C9
:100B000000684005410F2046C8400446204609B011
:100B100030BD0000D80F0000000C10000020004085
:100B200000127A0010B50024FFF742FF0446044883
:100B30000068C004810F2046C8400446204610BD0E
:100B40000020004070B504460D46202020400028BB
:100B500009D020212046884304462A4621460648DB
:100B6000FFF712FF05E02A4621460348001FFFF762
:100B70000BFF002070BD00002420004010B5FFF7DF
:100B800017FF0149086010BD3C00002010B5FFF7B9
:100B9000F5FF10BD10B500F009F800F013F800F0F3
:100BA00001F810BD10B5FFF7A0FB10BD10B54B202C
:100BB000C001FFF7EBFB0248FFF7EAFA10BD0000A7
:100BC00090D0030010B50A20FFF730FC00F07CF94C
:100BD00010BD10B5C046C04610BD10B5C046C046D9
:100BE00010BD10B5C046C04610BD10B5C046C046C9
:100BF00010BD10B5C046C04610BD10B5C046C046B9
:100C000010BD10B5C046C04610BD10B5C046C046A8
:100C1000C046C04610BD10B500F008F8C046C0463A
:100C200010BD10B5C046C04610BD000010B5002173
:100C30002C4800F092F800282BD00021294800F021
:100C400063F8284800F0CCF82749284A12788854DD
:100C500026480078401C2549087000202449087067
:100C60002248007823490978884212DB00201F4976
:100C7000087001201E49087008221B491E48FFF712
:100C80005DFA0021174800F04AF80121154800F0EC
:100C90005AF80121134800F060F8002821D0012102
:100CA000104800F031F815480078401C13490870CE
:100CB000084600781249097888420BDB00200F496A
:100CC00008700121074800F02AF80021054800F0CB
:100CD0003AF806E00B48094A1278815C014800F0B6
:100CE00083F810BD000100408000002001000020BA
:100CF00035000020030000202D000020000000200F
:100D0000020000204000002070B504460D4600227D
:100D1000294620461430FFF737FE002070BD70B51D
:100D200004460D4600222946201DFFF72DFE002017
:100D300070BD70B504460D4601222946201DFFF7FF
:100D400023FE002070BD70B504460D4601222946E1
:100D5000201DFFF719FE002070BD70B504460D463A
:100D60000026294620461030FFF732FD0646304661
:100D700070BD0000FEB505460C460127174903C9A2
:100D800001910090002C01D10420FEBD002068607C
:100D9000608861780843A188084321780843686027
:100DA0002078402802D02078C02813D1A088C1170D
:100DB000C90D0918491289006A46515A8EB2E26873
:100DC000B2401146A068FFF7A3F9A86104212846A4
:100DD000FFF7AFFF00273846D7E70000F00F00000D
:100DE00001460868C0B2704702461068000A000257
:100DF000CBB2184310600020704710B5C046C04603
:100E0000C046C046C046C046C046C04610BD10B52C
:100E100000F016F810BD00001E2002490860E12015
:100E200008607047800F00400448406880210840F7
:100E3000002801D0012070470020FCE7800F00400F
:100E400010B5FFF7F1FF00281AD000F035F80D4873
:100E50000078C0430B49087008460078002805D088
:100E600001220F210020FFF70BFD04E000220F21DB
:100E70001046FFF705FD04480078401C0249087041
:100E800010BD0000050000200400002030B503461E
:100E90000C460125204600F01FF806484068202136
:100EA0008843590120221140084302494860002527
:100EB000284630BD800F00401E2002490860E12016
:100EC00008607047800F00401E2002490860E12042
:100ED00008607047800F004004494968090909010A
:100EE0000207120F1143014A51607047800F004002
:100EF00030B47446641E2578641CAB4204D3635D31
:100F00005B00E31830BC18471D46F8E710B5002811
:100F100019DB1A4A03231B02D21883089B00D258FC
:100F20008307DC0EFF23A3409A438B071B0E840725
:100F3000E40EA3401A43114B032424021B19840816
:100F4000A4001A5118E00E4A03071B0F083B9B0828
:100F50009B00D2588307DC0EFF23A3409A438B07E4
:100F60001B0E8407E40EA3401A43054B0407240F0D
:100F7000083CA408A4001A5110BD000000E100E0E4
:100F80001CED00E002E008C8121F08C1002AFAD1D7
:100F900070477047002001E001C1121F002AFBD1F9
:100FA000704710B50A460146002900D110BD02E085
:100FB00000230B70491C1346521E002BF8D100BFB2
:100FC000F4E7FFF7E7FD06E0FFF726FF0020FFF755
:100FD00095FCFFF7B9FCF7E700093D0000127A0025
:100FE0000024F4004086510100366E010080009616
:100FF00004000000030000001810000000000020A2
:1010000040000000840F0000581000004000002045
:1010100080020000940F00000000000800FF0000A4
:1010200000000000000000000000000000000000C0
:1010300000000000005AA505821003100000000007
:1010400000000000000000000000000000000000A0
:081050000000000000093D0052
:04000005000000C136
:00000001FF
