:020000040000FA
:10000000C8020020D5000000EF000000CD04000071
:1000100000000000000000000000000000000000E0
:10002000000000000000000000000000F3000000DD
:100030000000000000000000F50000006305000063
:10004000050500000D050000150500002105000054
:100050008903000069070000890700009507000078
:10006000ED040000F50400002D0500003905000036
:10007000DD040000E50400005107000059070000FE
:1000800061070000F9000000710700007907000017
:1000900081070000FD0400007F090000F900000056
:1000A000A9010000F90000006B090000A107000091
:1000B000C9020000F900000011040000490300001B
:1000C0000348854600F05EF8004800475D0A0000DE
:1000D000C802002009480A4A002100A1814200D933
:1000E0000244084802600848804708480047FEE785
:1000F000FEE7FEE7FEE7FEE7FEE700000000002067
:100100000000000008ED00E049070000C100000009
:1001100030B50B46014600202022012409E00D469F
:10012000D5409D4205D31D469540491B2546954027
:1001300040191546521E002DF1DC30BD03460B431D
:100140009B0703D009E008C9121F08C0042AFAD28D
:1001500003E00B780370401C491C521EF9D2704713
:10016000D2B201E00270401C491EFBD2704700224F
:10017000F6E710B513460A4604461946FFF7F0FFA6
:10018000204610BD064C0125064E05E0E36807CC6D
:100190002B430C3C98471034B442F7D3FFF794FF3D
:1001A000B00A0000D00A000010B5C046C046C046E4
:1001B000C04610BD00B589B0102105A800F03DFC77
:1001C000022104A800F039FC0C2101A800F035FC44
:1001D0000121084600F094FA40216846017500218B
:1001E000C182042141754B21C901089101214902B5
:1001F000018300F075FA079005A90B4800F072FB27
:100200000021094800F038FB0121074800F034FBC9
:100210000021054800F04FFB01220321072000F0D8
:10022000B7F809B000BD00000001004010B500F0B3
:1002300003F8FFF7BFFF10BD1CB50621684600F0AC
:10024000FCFB01211C2000F05BFA002168460170D4
:100250006A460221002000F0E7F801220221002076
:1002600000F02AF90121684601706A460321002046
:1002700000F0DAF801220321002000F01DF91CBD76
:1002800070B504460E4615460121204600F013FBCA
:10029000094884420ED100200849087008480570BA
:1002A000027831460748FFF749FF064801782046A3
:1002B00000F052FB70BD0000000100400000002073
:1002C000020000202400002010B500F043F810BD0B
:1002D00002460548012903D103681343036002E085
:1002E0000368934303607047A40003400021024960
:1002F0000A6802430A607047A400034001460022D6
:10030000044A10680840002801D0012070470020EE
:10031000FCE70000A40003400A490968016009499C
:10032000496841600749896881600649CA68C260B6
:100330000449A031C978102291431031014AA032FA
:10034000D17070470000034010B5C046C046C0469B
:10035000C04610BD10B50120C003FFF7CFFF012834
:100360000CD1C003FFF7C2FF00218020FFF7B0FFD0
:100370000348FFF7D1FF01200249087010BD0000BB
:10038000A40000200400002010B5C046C04610BDE7
:1003900070B504460E4615462046002805DBC20609
:1003A000D20E01219140184A116000BF314620460B
:1003B00000F0F8FA012D0AD12046002805DBC2061C
:1003C000D20E01219140114A116000BF1BE020466E
:1003D000002816DBC206D20E012191400B4A803262
:1003E000116000BF00BF00BFBFF34F8F00BF00BF51
:1003F00000BF00BF00BF00BFBFF36F8F00BF00BFD3
:1004000000BF00BF00BF70BD80E200E000E100E07F
:1004100010B5C046C046C046C04610BD0246106872
:10042000C840C007C00F704770B504460E46154659
:100430001E4960180022314600F084F800201C4953
:100440006118B20088502A7818490C396018314672
:1004500000F078F86A78154910316018314600F0DC
:1004600071F8AA78114914316018314600F06AF821
:10047000EA780E4918316018314600F063F82A799D
:100480000A4920316018314600F05CF8094880685C
:100490000121C90388436979C9030122D2031140AC
:1004A000084304498860002070BD00000C0D024024
:1004B000000C0240000F024010B503460248181815
:1004C0008C000251002010BD000C024008B5002035
:1004D000009000BF00980028FCD008BD10B5C046B1
:1004E000C04610BD10B5C046C04610BD10B5C046D0
:1004F000C04610BD10B5C046C04610BD10B5C046C0
:10050000C04610BD10B5C046C04610BD10B5C046AF
:10051000C04610BD10B5C046C046C046C04610BD5E
:1005200010B5C046C046C046C04610BD10B5C04656
:10053000C046C046C04610BD10B5C046C046C04605
:10054000C04610BD10B5012A05D1036801248C40B6
:100550002343036004E0036801248C40A343036049
:1005600010BD10B5C046C04610BD000030B589B002
:1005700000241422564904A8FFF7E0FD5448143023
:10058000006803900020009001900290514801887B
:10059000684601814F4841886846C1804D4881883E
:1005A000684681804B48C188684641804948203070
:1005B000018868460180484800680006450F2B0006
:1005C00000F0E1F905042E303E4178004248C06851
:1005D0004005400D69460989884201D1089C1EE00A
:1005E0003D48C0684005400D6946C988884201D130
:1005F000079C14E03848C0684005400D694689886A
:10060000884201D1069C0AE03348C0684005400D8D
:1006100069464988884201D1059C00E0049C4BE072
:100620002E4C49E0684600882B4949698905890DA7
:10063000884202D16846C48901E0684684893BE06B
:100640000124E40338E02448C06B8007800F0328AE
:1006500029D1684600892049C9684905490D884261
:1006600001D1089C20E06846C0881B49C96849053B
:10067000490D884201D1079C16E0684680881649DA
:10068000C9684905490D884201D1069C0CE06846BD
:1006900040881149C9684905490D884201D1059C26
:1006A00002E0049C00E00D4C0B48C06BC005000F3D
:1006B000444301E0002400BF00BF07480068400534
:1006C000410F2046C8400446204609B030BD000016
:1006D000900A0000000C10000020004000127A0078
:1006E00010B50024FFF742FF044604480068C00428
:1006F000810F2046C8400446204610BD002000401F
:1007000070B504460D4620202040002809D0202145
:100710002046884304462A4621460648FFF712FF32
:1007200005E02A4621460348001FFFF70BFF002083
:1007300070BD00002420004010B5FFF717FF0149ED
:10074000086010BD2000002010B5FFF7F5FF10BDB8
:1007500010B5C046C04610BD10B5C046C04610BD5D
:1007600010B5C046C04610BD10B5C046C04610BD4D
:1007700010B5C046C04610BD10B5C046C04610BD3D
:1007800010B5C046C04610BD10B5C046C046C046F4
:10079000C04610BD10B500F007F8C046C04610BDF9
:1007A00010B5C046C04610BD10B500212A4800F063
:1007B0008CF8002826D00021274800F05DF8264854
:1007C00000F0C6F82549264A127888542448007853
:1007D000401C2349087000202249087020480078F6
:1007E0002149097888420DDB00201D49087001204D
:1007F0001C4908700021184800F049F801211648EA
:1008000000F059F80121144800F05FF8002821D0C9
:100810000121114800F030F814480078401C1349B9
:100820000870084600781249097888420BDB0020DE
:100830000E4908700121084800F029F800210648F7
:1008400000F039F806E00B48084A1278815C02484B
:1008500000F082F810BD000000010040640000209C
:10086000010000201D0000200300002000000020E7
:10087000020000202400002070B504460D4600222E
:10088000294620461430FFF75DFE002070BD70B58C
:1008900004460D4600222946201DFFF753FE002086
:1008A00070BD70B504460D4601222946201DFFF794
:1008B00049FE002070BD70B504460D460122294650
:1008C000201DFFF73FFE002070BD70B504460D46A9
:1008D0000026294620461030FFF7A0FD0646304688
:1008E00070BD0000FEB505460C460127174903C937
:1008F00001910090002C01D10420FEBD0020686011
:10090000608861780843A1880843217808436860BB
:100910002078402802D02078C02813D1A088C117A1
:10092000C90D0918491289006A46515A8EB2E26807
:10093000B2401146A068FFF7EBFBA86104212846EE
:10094000FFF7AFFF00273846D7E70000A80A0000EE
:1009500001460868C0B2704702461068000A0002EB
:10096000CBB2184310600020704710B5C046C04697
:10097000C046C046C046C046C046C04610BD10B5C1
:10098000C046C04610BD30B47446641E2578641C51
:10099000AB4204D3635D5B00E31830BC18471D46CF
:1009A000F8E7000010B5002819DB1A4A03231B02E0
:1009B000D21883089B00D2588307DC0EFF23A34084
:1009C0009A438B071B0E8407E40EA3401A43114B76
:1009D000032424021B198408A4001A5118E00E4AAB
:1009E00003071B0F083B9B089B00D2588307DC0EB4
:1009F000FF23A3409A438B071B0E8407E40EA340FA
:100A00001A43054B0407240F083CA408A4001A51FC
:100A100010BD000000E100E01CED00E002E008C8AD
:100A2000121F08C1002AFAD170477047002001E068
:100A300001C1121F002AFBD1704710B50A460146BA
:100A4000002900D110BD02E000230B70491C1346A1
:100A5000521E002BF8D100BFF4E70000FFF7E6FBC1
:100A600040210848FFF783FB0BE007480078012886
:100A700007D1082203490548FFF702FC002002497C
:100A80000870F2E7640000201D0000200001004013
:100A900000093D0000127A000024F4004086510154
:100AA00000366E0100800096040000000300000084
:100AB000D00A000000000020240000001C0A0000F2
:100AC000F40A000024000020A40200002C0A000008
:100AD00000000008005AA505821003100000000065
:100AE0000000000000000000000000000000000006
:040AF00000093D00BC
:04000005000000C136
:00000001FF
